{
  "abi": [
    {
      "constant": false,
      "inputs": [],
      "name": "authenticate",
      "outputs": [],
      "payable": false,
      "stateMutability": "nonpayable",
      "type": "function"
    },
    {
      "constant": true,
      "inputs": [],
      "name": "isComplete",
      "outputs": [
        {
          "name": "",
          "type": "bool"
        }
      ],
      "payable": false,
      "stateMutability": "view",
      "type": "function"
    }
  ],
  "bytecode": "608060405260008054600160a060020a031916736b477781b0e68031109f21887e6b5afeaaeb002b17905534801561003657600080fd5b50610138806100466000396000f30060806040526004361061004b5763ffffffff7c0100000000000000000000000000000000000000000000000000000000600035041663380c7a678114610050578063b2fa1c9e14610067575b600080fd5b34801561005c57600080fd5b50610065610090565b005b34801561007357600080fd5b5061007c6100eb565b604080519115158252519081900360200190f35b60005473ffffffffffffffffffffffffffffffffffffffff1633146100b457600080fd5b6000805474ff0000000000000000000000000000000000000000191674010000000000000000000000000000000000000000179055565b60005474010000000000000000000000000000000000000000900460ff16815600a165627a7a72305820dfef2a3b53cc847b09714341fe9c8fc2dcf26eab6eb209f8653604f9ed723b6c0029",
  "bytecodeSha1": "d7ab3c67b4d87bde2c643e5e3710223ba8d1b670",
  "compiler": {
    "evm_version": "byzantium",
    "optimizer": {
      "enabled": true,
      "runs": 200
    },
    "version": "0.4.26+commit.4563c3fc"
  },
  "contractName": "AccountTakeoverChallenge",
  "language": "Solidity",
  "natspec": {
    "methods": {}
  },
  "opcodes": "PUSH1 0x80 PUSH1 0x40 MSTORE PUSH1 0x4 CALLDATASIZE LT PUSH2 0x4B JUMPI PUSH4 0xFFFFFFFF PUSH29 0x100000000000000000000000000000000000000000000000000000000 PUSH1 0x0 CALLDATALOAD DIV AND PUSH4 0x380C7A67 DUP2 EQ PUSH2 0x50 JUMPI DUP1 PUSH4 0xB2FA1C9E EQ PUSH2 0x67 JUMPI JUMPDEST PUSH1 0x0 DUP1 REVERT JUMPDEST CALLVALUE DUP1 ISZERO PUSH2 0x5C JUMPI PUSH1 0x0 DUP1 REVERT JUMPDEST POP PUSH2 0x65 PUSH2 0x90 JUMP JUMPDEST STOP JUMPDEST CALLVALUE DUP1 ISZERO PUSH2 0x73 JUMPI PUSH1 0x0 DUP1 REVERT JUMPDEST POP PUSH2 0x7C PUSH2 0xEB JUMP JUMPDEST PUSH1 0x40 DUP1 MLOAD SWAP2 ISZERO ISZERO DUP3 MSTORE MLOAD SWAP1 DUP2 SWAP1 SUB PUSH1 0x20 ADD SWAP1 RETURN JUMPDEST PUSH1 0x0 SLOAD PUSH20 0xFFFFFFFFFFFFFFFFFFFFFFFFFFFFFFFFFFFFFFFF AND CALLER EQ PUSH2 0xB4 JUMPI PUSH1 0x0 DUP1 REVERT JUMPDEST PUSH1 0x0 DUP1 SLOAD PUSH21 0xFF0000000000000000000000000000000000000000 NOT AND PUSH21 0x10000000000000000000000000000000000000000 OR SWAP1 SSTORE JUMP JUMPDEST PUSH1 0x0 SLOAD PUSH21 0x10000000000000000000000000000000000000000 SWAP1 DIV PUSH1 0xFF AND DUP2 JUMP STOP LOG1 PUSH6 0x627A7A723058 KECCAK256 0xdf 0xef 0x2a EXTCODESIZE MSTORE8 0xcc DUP5 PUSH28 0x9714341FE9C8FC2DCF26EAB6EB209F8653604F9ED723B6C00290000 ",
  "sha1": "24688402c85265b061836a1e177b93e160dfb4c1",
  "source": "pragma solidity ^0.4.21;\n\ncontract AccountTakeoverChallenge {\n    address owner = 0x6B477781b0e68031109f21887e6B5afEAaEB002b;\n    bool public isComplete;\n\n    function authenticate() public {\n        require(msg.sender == owner);\n\n        isComplete = true;\n    }\n}\n",
  "sourcePath": "contracts/Account-takeover.sol",
  "type": "contract"
}