{
  "abi": [
    {
      "constant": false,
      "inputs": [],
      "name": "AssumeOwmershipChallenge",
      "outputs": [],
      "payable": false,
      "stateMutability": "nonpayable",
      "type": "function"
    },
    {
      "constant": false,
      "inputs": [],
      "name": "authenticate",
      "outputs": [],
      "payable": false,
      "stateMutability": "nonpayable",
      "type": "function"
    },
    {
      "constant": true,
      "inputs": [],
      "name": "isComplete",
      "outputs": [
        {
          "name": "",
          "type": "bool"
        }
      ],
      "payable": false,
      "stateMutability": "view",
      "type": "function"
    }
  ],
  "bytecode": "608060405234801561001057600080fd5b50610179806100206000396000f3006080604052600436106100565763ffffffff7c010000000000000000000000000000000000000000000000000000000060003504166321aa0615811461005b578063380c7a6714610072578063b2fa1c9e14610087575b600080fd5b34801561006757600080fd5b506100706100b0565b005b34801561007e57600080fd5b506100706100d1565b34801561009357600080fd5b5061009c61012c565b604080519115158252519081900360200190f35b6000805473ffffffffffffffffffffffffffffffffffffffff191633179055565b60005473ffffffffffffffffffffffffffffffffffffffff1633146100f557600080fd5b6000805474ff0000000000000000000000000000000000000000191674010000000000000000000000000000000000000000179055565b60005474010000000000000000000000000000000000000000900460ff16815600a165627a7a72305820f5e505ded2cba70a5f91ffbb8b139229b6534fff42b34b0cf9f891697cf139fa0029",
  "bytecodeSha1": "88f225006c2c3e13b95b98b99b3e6a79a2226f16",
  "compiler": {
    "evm_version": "byzantium",
    "optimizer": {
      "enabled": true,
      "runs": 200
    },
    "version": "0.4.26+commit.4563c3fc"
  },
  "contractName": "AssumeOwnershipChallenge",
  "language": "Solidity",
  "natspec": {
    "methods": {}
  },
  "opcodes": "PUSH1 0x80 PUSH1 0x40 MSTORE PUSH1 0x4 CALLDATASIZE LT PUSH2 0x56 JUMPI PUSH4 0xFFFFFFFF PUSH29 0x100000000000000000000000000000000000000000000000000000000 PUSH1 0x0 CALLDATALOAD DIV AND PUSH4 0x21AA0615 DUP2 EQ PUSH2 0x5B JUMPI DUP1 PUSH4 0x380C7A67 EQ PUSH2 0x72 JUMPI DUP1 PUSH4 0xB2FA1C9E EQ PUSH2 0x87 JUMPI JUMPDEST PUSH1 0x0 DUP1 REVERT JUMPDEST CALLVALUE DUP1 ISZERO PUSH2 0x67 JUMPI PUSH1 0x0 DUP1 REVERT JUMPDEST POP PUSH2 0x70 PUSH2 0xB0 JUMP JUMPDEST STOP JUMPDEST CALLVALUE DUP1 ISZERO PUSH2 0x7E JUMPI PUSH1 0x0 DUP1 REVERT JUMPDEST POP PUSH2 0x70 PUSH2 0xD1 JUMP JUMPDEST CALLVALUE DUP1 ISZERO PUSH2 0x93 JUMPI PUSH1 0x0 DUP1 REVERT JUMPDEST POP PUSH2 0x9C PUSH2 0x12C JUMP JUMPDEST PUSH1 0x40 DUP1 MLOAD SWAP2 ISZERO ISZERO DUP3 MSTORE MLOAD SWAP1 DUP2 SWAP1 SUB PUSH1 0x20 ADD SWAP1 RETURN JUMPDEST PUSH1 0x0 DUP1 SLOAD PUSH20 0xFFFFFFFFFFFFFFFFFFFFFFFFFFFFFFFFFFFFFFFF NOT AND CALLER OR SWAP1 SSTORE JUMP JUMPDEST PUSH1 0x0 SLOAD PUSH20 0xFFFFFFFFFFFFFFFFFFFFFFFFFFFFFFFFFFFFFFFF AND CALLER EQ PUSH2 0xF5 JUMPI PUSH1 0x0 DUP1 REVERT JUMPDEST PUSH1 0x0 DUP1 SLOAD PUSH21 0xFF0000000000000000000000000000000000000000 NOT AND PUSH21 0x10000000000000000000000000000000000000000 OR SWAP1 SSTORE JUMP JUMPDEST PUSH1 0x0 SLOAD PUSH21 0x10000000000000000000000000000000000000000 SWAP1 DIV PUSH1 0xFF AND DUP2 JUMP STOP LOG1 PUSH6 0x627A7A723058 KECCAK256 0xf5 0xe5 SDIV 0xde 0xd2 0xcb 0xa7 EXP 0x5f SWAP2 SELFDESTRUCT 0xbb DUP12 SGT SWAP3 0x29 0xb6 MSTORE8 0x4f SELFDESTRUCT TIMESTAMP 0xb3 0x4b 0xc 0xf9 0xf8 SWAP2 PUSH10 0x7CF139FA002900000000 ",
  "sha1": "c5a3daba8cef82f3ae8038caf13b1229052bdb21",
  "source": "pragma solidity ^0.4.21;\n\ncontract AssumeOwnershipChallenge {\n    address owner;\n    bool public isComplete;\n\n    function AssumeOwmershipChallenge() public {\n        owner = msg.sender;\n    }\n\n    function authenticate() public {\n        require(msg.sender == owner);\n\n        isComplete = true;\n    }\n}\n",
  "sourcePath": "contracts/Assume-ownership.sol",
  "type": "contract"
}