{
  "abi": [
    {
      "constant": false,
      "inputs": [],
      "name": "callme",
      "outputs": [],
      "payable": false,
      "stateMutability": "nonpayable",
      "type": "function"
    },
    {
      "constant": true,
      "inputs": [],
      "name": "isComplete",
      "outputs": [
        {
          "name": "",
          "type": "bool"
        }
      ],
      "payable": false,
      "stateMutability": "view",
      "type": "function"
    }
  ],
  "bytecode": "60806040526000805460ff1916905534801561001a57600080fd5b5060cb806100296000396000f30060806040526004361060485763ffffffff7c0100000000000000000000000000000000000000000000000000000000600035041663a3c8e3938114604d578063b2fa1c9e146061575b600080fd5b348015605857600080fd5b50605f6087565b005b348015606c57600080fd5b5060736096565b604080519115158252519081900360200190f35b6000805460ff19166001179055565b60005460ff16815600a165627a7a723058206cd5a96c3658564d90ed33d1b24b5c096db78796d42d2d11b4efbf931af404830029",
  "bytecodeSha1": "80bb8771f4b76dc0eefb406a10df3f878ff0d4d5",
  "compiler": {
    "evm_version": "byzantium",
    "optimizer": {
      "enabled": true,
      "runs": 200
    },
    "version": "0.4.26+commit.4563c3fc"
  },
  "contractName": "CallMeChallenge",
  "language": "Solidity",
  "natspec": {
    "methods": {}
  },
  "opcodes": "PUSH1 0x80 PUSH1 0x40 MSTORE PUSH1 0x4 CALLDATASIZE LT PUSH1 0x48 JUMPI PUSH4 0xFFFFFFFF PUSH29 0x100000000000000000000000000000000000000000000000000000000 PUSH1 0x0 CALLDATALOAD DIV AND PUSH4 0xA3C8E393 DUP2 EQ PUSH1 0x4D JUMPI DUP1 PUSH4 0xB2FA1C9E EQ PUSH1 0x61 JUMPI JUMPDEST PUSH1 0x0 DUP1 REVERT JUMPDEST CALLVALUE DUP1 ISZERO PUSH1 0x58 JUMPI PUSH1 0x0 DUP1 REVERT JUMPDEST POP PUSH1 0x5F PUSH1 0x87 JUMP JUMPDEST STOP JUMPDEST CALLVALUE DUP1 ISZERO PUSH1 0x6C JUMPI PUSH1 0x0 DUP1 REVERT JUMPDEST POP PUSH1 0x73 PUSH1 0x96 JUMP JUMPDEST PUSH1 0x40 DUP1 MLOAD SWAP2 ISZERO ISZERO DUP3 MSTORE MLOAD SWAP1 DUP2 SWAP1 SUB PUSH1 0x20 ADD SWAP1 RETURN JUMPDEST PUSH1 0x0 DUP1 SLOAD PUSH1 0xFF NOT AND PUSH1 0x1 OR SWAP1 SSTORE JUMP JUMPDEST PUSH1 0x0 SLOAD PUSH1 0xFF AND DUP2 JUMP STOP LOG1 PUSH6 0x627A7A723058 KECCAK256 PUSH13 0xD5A96C3658564D90ED33D1B24B 0x5c MULMOD PUSH14 0xB78796D42D2D11B4EFBF931AF404 DUP4 STOP 0x29 ",
  "sha1": "1e6316bcf8c525743e858d26d933e85fd0649c73",
  "source": "pragma solidity ^0.4.21;\n\ncontract CallMeChallenge {\n    bool public isComplete = false;\n\n    function callme() public {\n        isComplete = true;\n    }\n}\n",
  "sourcePath": "contracts/Call-me.sol",
  "type": "contract"
}