{
  "abi": [
    {
      "constant": false,
      "inputs": [
        {
          "name": "nickname",
          "type": "bytes32"
        }
      ],
      "name": "setNickname",
      "outputs": [],
      "payable": false,
      "stateMutability": "nonpayable",
      "type": "function"
    },
    {
      "constant": true,
      "inputs": [
        {
          "name": "",
          "type": "address"
        }
      ],
      "name": "nicknameOf",
      "outputs": [
        {
          "name": "",
          "type": "bytes32"
        }
      ],
      "payable": false,
      "stateMutability": "view",
      "type": "function"
    }
  ],
  "bytecode": "608060405234801561001057600080fd5b5060f18061001f6000396000f30060806040526004361060485763ffffffff7c01000000000000000000000000000000000000000000000000000000006000350416631ae8ab818114604d5780636790081c146064575b600080fd5b348015605857600080fd5b50606260043560a1565b005b348015606f57600080fd5b50608f73ffffffffffffffffffffffffffffffffffffffff6004351660b3565b60408051918252519081900360200190f35b33600090815260208190526040902055565b600060208190529081526040902054815600a165627a7a723058206c0afdba610fa51014a0cc1d8beef4e0fc860459e8a7b87d5be206e58eaa31810029",
  "bytecodeSha1": "6f778d80d084973a507d1faf8dd85eeed7e3c6d5",
  "compiler": {
    "evm_version": "byzantium",
    "optimizer": {
      "enabled": true,
      "runs": 200
    },
    "version": "0.4.26+commit.4563c3fc"
  },
  "contractName": "CaptureTheEther",
  "language": "Solidity",
  "natspec": {
    "methods": {}
  },
  "opcodes": "PUSH1 0x80 PUSH1 0x40 MSTORE PUSH1 0x4 CALLDATASIZE LT PUSH1 0x48 JUMPI PUSH4 0xFFFFFFFF PUSH29 0x100000000000000000000000000000000000000000000000000000000 PUSH1 0x0 CALLDATALOAD DIV AND PUSH4 0x1AE8AB81 DUP2 EQ PUSH1 0x4D JUMPI DUP1 PUSH4 0x6790081C EQ PUSH1 0x64 JUMPI JUMPDEST PUSH1 0x0 DUP1 REVERT JUMPDEST CALLVALUE DUP1 ISZERO PUSH1 0x58 JUMPI PUSH1 0x0 DUP1 REVERT JUMPDEST POP PUSH1 0x62 PUSH1 0x4 CALLDATALOAD PUSH1 0xA1 JUMP JUMPDEST STOP JUMPDEST CALLVALUE DUP1 ISZERO PUSH1 0x6F JUMPI PUSH1 0x0 DUP1 REVERT JUMPDEST POP PUSH1 0x8F PUSH20 0xFFFFFFFFFFFFFFFFFFFFFFFFFFFFFFFFFFFFFFFF PUSH1 0x4 CALLDATALOAD AND PUSH1 0xB3 JUMP JUMPDEST PUSH1 0x40 DUP1 MLOAD SWAP2 DUP3 MSTORE MLOAD SWAP1 DUP2 SWAP1 SUB PUSH1 0x20 ADD SWAP1 RETURN JUMPDEST CALLER PUSH1 0x0 SWAP1 DUP2 MSTORE PUSH1 0x20 DUP2 SWAP1 MSTORE PUSH1 0x40 SWAP1 KECCAK256 SSTORE JUMP JUMPDEST PUSH1 0x0 PUSH1 0x20 DUP2 SWAP1 MSTORE SWAP1 DUP2 MSTORE PUSH1 0x40 SWAP1 KECCAK256 SLOAD DUP2 JUMP STOP LOG1 PUSH6 0x627A7A723058 KECCAK256 PUSH13 0xAFDBA610FA51014A0CC1D8BEE DELEGATECALL 0xe0 0xfc DUP7 DIV MSIZE 0xe8 0xa7 0xb8 PUSH30 0x5BE206E58EAA318100290000000000000000000000000000000000000000 ",
  "sha1": "d50b52e3333d5ce4887d1467916bbf9edffd10e0",
  "source": "pragma solidity ^0.4.21;\n\n// Relevant part of the CaptureTheEther contract.\ncontract CaptureTheEther {\n    mapping(address => bytes32) public nicknameOf;\n\n    function setNickname(bytes32 nickname) public {\n        nicknameOf[msg.sender] = nickname;\n    }\n}\n\n// Challenge contract. You don't need to do anything with this; it just verifies\n// that you set a nickname for yourself.\ncontract NicknameChallenge {\n    CaptureTheEther cte;\n    address player;\n\n    // Your address gets passed in as a constructor parameter.\n    function NicknameChallenge(address _player, address _cte) public {\n        player = _player;\n        cte = CaptureTheEther(_cte);\n    }\n\n    // Check that the first character is not null.\n    function isComplete() public view returns (bool) {\n        return cte.nicknameOf(player)[0] != 0;\n    }\n}\n",
  "sourcePath": "contracts/Choose-a-nickname.sol",
  "type": "contract"
}