{
  "abi": [
    {
      "constant": true,
      "inputs": [],
      "name": "isComplete",
      "outputs": [
        {
          "name": "",
          "type": "bool"
        }
      ],
      "payable": false,
      "stateMutability": "pure",
      "type": "function"
    }
  ],
  "bytecode": "6080604052348015600f57600080fd5b50609a8061001e6000396000f300608060405260043610603e5763ffffffff7c0100000000000000000000000000000000000000000000000000000000600035041663b2fa1c9e81146043575b600080fd5b348015604e57600080fd5b5060556069565b604080519115158252519081900360200190f35b6001905600a165627a7a723058207d722ae57cb82ca6d67c85d1ebf4cc555e3f62089299100acea487ed115f6d7d0029",
  "bytecodeSha1": "0ff6136e21900ede20d41a061d26e3daaca81315",
  "compiler": {
    "evm_version": "byzantium",
    "optimizer": {
      "enabled": true,
      "runs": 200
    },
    "version": "0.4.26+commit.4563c3fc"
  },
  "contractName": "DeployChallenge",
  "language": "Solidity",
  "natspec": {
    "methods": {}
  },
  "opcodes": "PUSH1 0x80 PUSH1 0x40 MSTORE PUSH1 0x4 CALLDATASIZE LT PUSH1 0x3E JUMPI PUSH4 0xFFFFFFFF PUSH29 0x100000000000000000000000000000000000000000000000000000000 PUSH1 0x0 CALLDATALOAD DIV AND PUSH4 0xB2FA1C9E DUP2 EQ PUSH1 0x43 JUMPI JUMPDEST PUSH1 0x0 DUP1 REVERT JUMPDEST CALLVALUE DUP1 ISZERO PUSH1 0x4E JUMPI PUSH1 0x0 DUP1 REVERT JUMPDEST POP PUSH1 0x55 PUSH1 0x69 JUMP JUMPDEST PUSH1 0x40 DUP1 MLOAD SWAP2 ISZERO ISZERO DUP3 MSTORE MLOAD SWAP1 DUP2 SWAP1 SUB PUSH1 0x20 ADD SWAP1 RETURN JUMPDEST PUSH1 0x1 SWAP1 JUMP STOP LOG1 PUSH6 0x627A7A723058 KECCAK256 PUSH30 0x722AE57CB82CA6D67C85D1EBF4CC555E3F62089299100ACEA487ED115F6D PUSH30 0x2900000000000000000000000000000000000000000000000000000000 ",
  "sha1": "da3142c0a7798aec3ce1b87f149d976cdbb111e0",
  "source": "pragma solidity ^0.4.21;\n\ncontract DeployChallenge {\n    // This tells the CaptureTheFlag contract that the challenge is complete.\n    function isComplete() public pure returns (bool) {\n        return true;\n    }\n}\n",
  "sourcePath": "contracts/Deploy-a-contract.sol",
  "type": "contract"
}