{
  "abi": [
    {
      "constant": false,
      "inputs": [],
      "name": "withdraw",
      "outputs": [],
      "payable": false,
      "stateMutability": "nonpayable",
      "type": "function"
    },
    {
      "constant": true,
      "inputs": [],
      "name": "owner",
      "outputs": [
        {
          "name": "",
          "type": "address"
        }
      ],
      "payable": false,
      "stateMutability": "view",
      "type": "function"
    },
    {
      "constant": true,
      "inputs": [],
      "name": "isComplete",
      "outputs": [
        {
          "name": "",
          "type": "bool"
        }
      ],
      "payable": false,
      "stateMutability": "view",
      "type": "function"
    },
    {
      "constant": false,
      "inputs": [
        {
          "name": "etherAmount",
          "type": "uint256"
        }
      ],
      "name": "donate",
      "outputs": [],
      "payable": true,
      "stateMutability": "payable",
      "type": "function"
    },
    {
      "constant": true,
      "inputs": [
        {
          "name": "",
          "type": "uint256"
        }
      ],
      "name": "donations",
      "outputs": [
        {
          "name": "timestamp",
          "type": "uint256"
        },
        {
          "name": "etherAmount",
          "type": "uint256"
        }
      ],
      "payable": false,
      "stateMutability": "view",
      "type": "function"
    },
    {
      "inputs": [],
      "payable": true,
      "stateMutability": "payable",
      "type": "constructor"
    }
  ],
  "bytecode": "6080604052670de0b6b3a7640000341461001857600080fd5b60018054600160a060020a03191633179055610288806100396000396000f30060806040526004361061006c5763ffffffff7c01000000000000000000000000000000000000000000000000000000006000350416633ccfd60b81146100715780638da5cb5b14610088578063b2fa1c9e146100c6578063f14faf6f146100ef578063f8626af8146100fa575b600080fd5b34801561007d57600080fd5b5061008661012b565b005b34801561009457600080fd5b5061009d61017f565b6040805173ffffffffffffffffffffffffffffffffffffffff9092168252519081900360200190f35b3480156100d257600080fd5b506100db61019b565b604080519115158252519081900360200190f35b6100866004356101a1565b34801561010657600080fd5b50610112600435610230565b6040805192835260208301919091528051918290030190f35b60015473ffffffffffffffffffffffffffffffffffffffff16331461014f57600080fd5b6040513390303180156108fc02916000818181858888f1935050505015801561017c573d6000803e3d6000fd5b50565b60015473ffffffffffffffffffffffffffffffffffffffff1681565b30311590565b6ec097ce7bc90715b34b9f1000000000600034828404146101c157600080fd5b4281556001808201938455600080549182018155805290547f290decd9548b62a8d60345a988386fc84ba6bc95484008f6362f93160ef3e56360029092029182015591547f290decd9548b62a8d60345a988386fc84ba6bc95484008f6362f93160ef3e5649092019190915550565b600080548290811061023e57fe5b600091825260209091206002909102018054600190910154909150825600a165627a7a72305820838d1201d72a5dbf7dab280a46001015ce3194c78d1b15315f57eb06d1d022f50029",
  "bytecodeSha1": "1f2be65a7f5b245271c488cddb1bcdfcee0a6f30",
  "compiler": {
    "evm_version": "byzantium",
    "optimizer": {
      "enabled": true,
      "runs": 200
    },
    "version": "0.4.26+commit.4563c3fc"
  },
  "contractName": "DonationChallenge",
  "language": "Solidity",
  "natspec": {
    "methods": {}
  },
  "opcodes": "PUSH1 0x80 PUSH1 0x40 MSTORE PUSH1 0x4 CALLDATASIZE LT PUSH2 0x6C JUMPI PUSH4 0xFFFFFFFF PUSH29 0x100000000000000000000000000000000000000000000000000000000 PUSH1 0x0 CALLDATALOAD DIV AND PUSH4 0x3CCFD60B DUP2 EQ PUSH2 0x71 JUMPI DUP1 PUSH4 0x8DA5CB5B EQ PUSH2 0x88 JUMPI DUP1 PUSH4 0xB2FA1C9E EQ PUSH2 0xC6 JUMPI DUP1 PUSH4 0xF14FAF6F EQ PUSH2 0xEF JUMPI DUP1 PUSH4 0xF8626AF8 EQ PUSH2 0xFA JUMPI JUMPDEST PUSH1 0x0 DUP1 REVERT JUMPDEST CALLVALUE DUP1 ISZERO PUSH2 0x7D JUMPI PUSH1 0x0 DUP1 REVERT JUMPDEST POP PUSH2 0x86 PUSH2 0x12B JUMP JUMPDEST STOP JUMPDEST CALLVALUE DUP1 ISZERO PUSH2 0x94 JUMPI PUSH1 0x0 DUP1 REVERT JUMPDEST POP PUSH2 0x9D PUSH2 0x17F JUMP JUMPDEST PUSH1 0x40 DUP1 MLOAD PUSH20 0xFFFFFFFFFFFFFFFFFFFFFFFFFFFFFFFFFFFFFFFF SWAP1 SWAP3 AND DUP3 MSTORE MLOAD SWAP1 DUP2 SWAP1 SUB PUSH1 0x20 ADD SWAP1 RETURN JUMPDEST CALLVALUE DUP1 ISZERO PUSH2 0xD2 JUMPI PUSH1 0x0 DUP1 REVERT JUMPDEST POP PUSH2 0xDB PUSH2 0x19B JUMP JUMPDEST PUSH1 0x40 DUP1 MLOAD SWAP2 ISZERO ISZERO DUP3 MSTORE MLOAD SWAP1 DUP2 SWAP1 SUB PUSH1 0x20 ADD SWAP1 RETURN JUMPDEST PUSH2 0x86 PUSH1 0x4 CALLDATALOAD PUSH2 0x1A1 JUMP JUMPDEST CALLVALUE DUP1 ISZERO PUSH2 0x106 JUMPI PUSH1 0x0 DUP1 REVERT JUMPDEST POP PUSH2 0x112 PUSH1 0x4 CALLDATALOAD PUSH2 0x230 JUMP JUMPDEST PUSH1 0x40 DUP1 MLOAD SWAP3 DUP4 MSTORE PUSH1 0x20 DUP4 ADD SWAP2 SWAP1 SWAP2 MSTORE DUP1 MLOAD SWAP2 DUP3 SWAP1 SUB ADD SWAP1 RETURN JUMPDEST PUSH1 0x1 SLOAD PUSH20 0xFFFFFFFFFFFFFFFFFFFFFFFFFFFFFFFFFFFFFFFF AND CALLER EQ PUSH2 0x14F JUMPI PUSH1 0x0 DUP1 REVERT JUMPDEST PUSH1 0x40 MLOAD CALLER SWAP1 ADDRESS BALANCE DUP1 ISZERO PUSH2 0x8FC MUL SWAP2 PUSH1 0x0 DUP2 DUP2 DUP2 DUP6 DUP9 DUP9 CALL SWAP4 POP POP POP POP ISZERO DUP1 ISZERO PUSH2 0x17C JUMPI RETURNDATASIZE PUSH1 0x0 DUP1 RETURNDATACOPY RETURNDATASIZE PUSH1 0x0 REVERT JUMPDEST POP JUMP JUMPDEST PUSH1 0x1 SLOAD PUSH20 0xFFFFFFFFFFFFFFFFFFFFFFFFFFFFFFFFFFFFFFFF AND DUP2 JUMP JUMPDEST ADDRESS BALANCE ISZERO SWAP1 JUMP JUMPDEST PUSH15 0xC097CE7BC90715B34B9F1000000000 PUSH1 0x0 CALLVALUE DUP3 DUP5 DIV EQ PUSH2 0x1C1 JUMPI PUSH1 0x0 DUP1 REVERT JUMPDEST TIMESTAMP DUP2 SSTORE PUSH1 0x1 DUP1 DUP3 ADD SWAP4 DUP5 SSTORE PUSH1 0x0 DUP1 SLOAD SWAP2 DUP3 ADD DUP2 SSTORE DUP1 MSTORE SWAP1 SLOAD PUSH32 0x290DECD9548B62A8D60345A988386FC84BA6BC95484008F6362F93160EF3E563 PUSH1 0x2 SWAP1 SWAP3 MUL SWAP2 DUP3 ADD SSTORE SWAP2 SLOAD PUSH32 0x290DECD9548B62A8D60345A988386FC84BA6BC95484008F6362F93160EF3E564 SWAP1 SWAP3 ADD SWAP2 SWAP1 SWAP2 SSTORE POP JUMP JUMPDEST PUSH1 0x0 DUP1 SLOAD DUP3 SWAP1 DUP2 LT PUSH2 0x23E JUMPI INVALID JUMPDEST PUSH1 0x0 SWAP2 DUP3 MSTORE PUSH1 0x20 SWAP1 SWAP2 KECCAK256 PUSH1 0x2 SWAP1 SWAP2 MUL ADD DUP1 SLOAD PUSH1 0x1 SWAP1 SWAP2 ADD SLOAD SWAP1 SWAP2 POP DUP3 JUMP STOP LOG1 PUSH6 0x627A7A723058 KECCAK256 DUP4 DUP14 SLT ADD 0xd7 0x2a 0x5d 0xbf PUSH30 0xAB280A46001015CE3194C78D1B15315F57EB06D1D022F500290000000000 ",
  "sha1": "7b026d8be1512aa939131acfc43502bd38dd50d5",
  "source": "pragma solidity ^0.4.21;\n\ncontract DonationChallenge {\n    struct Donation {\n        uint256 timestamp;\n        uint256 etherAmount;\n    }\n    Donation[] public donations;\n\n    address public owner;\n\n    function DonationChallenge() public payable {\n        require(msg.value == 1 ether);\n\n        owner = msg.sender;\n    }\n\n    function isComplete() public view returns (bool) {\n        return address(this).balance == 0;\n    }\n\n    function donate(uint256 etherAmount) public payable {\n        // amount is in ether, but msg.value is in wei\n        uint256 scale = 10**18 * 1 ether;\n        require(msg.value == etherAmount / scale);\n\n        Donation donation;\n        donation.timestamp = now;\n        donation.etherAmount = etherAmount;\n\n        donations.push(donation);\n    }\n\n    function withdraw() public {\n        require(msg.sender == owner);\n\n        msg.sender.transfer(address(this).balance);\n    }\n}\n",
  "sourcePath": "contracts/Donation.sol",
  "type": "contract"
}