{
  "abi": [
    {
      "constant": false,
      "inputs": [
        {
          "name": "index",
          "type": "uint256"
        }
      ],
      "name": "withdraw",
      "outputs": [],
      "payable": false,
      "stateMutability": "nonpayable",
      "type": "function"
    },
    {
      "constant": false,
      "inputs": [
        {
          "name": "index",
          "type": "uint256"
        },
        {
          "name": "timestamp",
          "type": "uint256"
        }
      ],
      "name": "upsert",
      "outputs": [],
      "payable": true,
      "stateMutability": "payable",
      "type": "function"
    },
    {
      "constant": true,
      "inputs": [],
      "name": "owner",
      "outputs": [
        {
          "name": "",
          "type": "address"
        }
      ],
      "payable": false,
      "stateMutability": "view",
      "type": "function"
    },
    {
      "constant": true,
      "inputs": [],
      "name": "head",
      "outputs": [
        {
          "name": "",
          "type": "uint256"
        }
      ],
      "payable": false,
      "stateMutability": "view",
      "type": "function"
    },
    {
      "constant": true,
      "inputs": [],
      "name": "isComplete",
      "outputs": [
        {
          "name": "",
          "type": "bool"
        }
      ],
      "payable": false,
      "stateMutability": "view",
      "type": "function"
    },
    {
      "constant": true,
      "inputs": [
        {
          "name": "",
          "type": "uint256"
        }
      ],
      "name": "queue",
      "outputs": [
        {
          "name": "amount",
          "type": "uint256"
        },
        {
          "name": "unlockTimestamp",
          "type": "uint256"
        }
      ],
      "payable": false,
      "stateMutability": "view",
      "type": "function"
    },
    {
      "inputs": [
        {
          "name": "player",
          "type": "address"
        }
      ],
      "payable": true,
      "stateMutability": "payable",
      "type": "constructor"
    }
  ],
  "bytecode": "60806040526040516020806104b68339810160405251670de0b6b3a7640000341461002957600080fd5b60028054600160a060020a03909216600160a060020a031990921691909117815560408051808201909152348152635dfc0f00420160208201908152600080546001810182559080529151919092027f290decd9548b62a8d60345a988386fc84ba6bc95484008f6362f93160ef3e56381019190915590517f290decd9548b62a8d60345a988386fc84ba6bc95484008f6362f93160ef3e564909101556103e1806100d56000396000f3006080604052600436106100775763ffffffff7c01000000000000000000000000000000000000000000000000000000006000350416632e1a7d4d811461007c5780633b8f718a146100965780638da5cb5b146100a45780638f7dcfa3146100e2578063b2fa1c9e14610109578063ddf0b00914610132575b600080fd5b34801561008857600080fd5b50610094600435610163565b005b610094600435602435610252565b3480156100b057600080fd5b506100b9610361565b6040805173ffffffffffffffffffffffffffffffffffffffff9092168252519081900360200190f35b3480156100ee57600080fd5b506100f761037d565b60408051918252519081900360200190f35b34801561011557600080fd5b5061011e610383565b604080519115158252519081900360200190f35b34801561013e57600080fd5b5061014a600435610389565b6040805192835260208301919091528051918290030190f35b600254600090819073ffffffffffffffffffffffffffffffffffffffff16331461018c57600080fd5b600080548490811061019a57fe5b90600052602060002090600202016001015442101515156101ba57600080fd5b50506001546000905b8281116102185760008054829081106101d857fe5b600091825260208220600290910201548154930192829081106101f757fe5b600091825260208220600290910201818155600190810191909155016101c3565b60018084019055604051339083156108fc029084906000818181858888f1935050505015801561024c573d6000803e3d6000fd5b50505050565b60025460009073ffffffffffffffffffffffffffffffffffffffff16331461027957600080fd5b600154831015801561028c575060005483105b156102bc57600080548490811061029f57fe5b60009182526020909120600290910201805434018155905061035c565b6000805460001981019081106102ce57fe5b906000526020600020906002020160010154620151800182101515156102f357600080fd5b3481556001808201838155600080549283018155805282547f290decd9548b62a8d60345a988386fc84ba6bc95484008f6362f93160ef3e563600290930292830155547f290decd9548b62a8d60345a988386fc84ba6bc95484008f6362f93160ef3e564909101555b505050565b60025473ffffffffffffffffffffffffffffffffffffffff1681565b60015481565b30311590565b600080548290811061039757fe5b600091825260209091206002909102018054600190910154909150825600a165627a7a723058209474e20296dfd26a3bd3d992a841ea5a1b53335214349c85ba499802fdc314940029",
  "bytecodeSha1": "68154aa6e47b55e9e36fde889a0ab0524b3c7797",
  "compiler": {
    "evm_version": "byzantium",
    "optimizer": {
      "enabled": true,
      "runs": 200
    },
    "version": "0.4.26+commit.4563c3fc"
  },
  "contractName": "FiftyYearsChallenge",
  "language": "Solidity",
  "natspec": {
    "methods": {}
  },
  "opcodes": "PUSH1 0x80 PUSH1 0x40 MSTORE PUSH1 0x4 CALLDATASIZE LT PUSH2 0x77 JUMPI PUSH4 0xFFFFFFFF PUSH29 0x100000000000000000000000000000000000000000000000000000000 PUSH1 0x0 CALLDATALOAD DIV AND PUSH4 0x2E1A7D4D DUP2 EQ PUSH2 0x7C JUMPI DUP1 PUSH4 0x3B8F718A EQ PUSH2 0x96 JUMPI DUP1 PUSH4 0x8DA5CB5B EQ PUSH2 0xA4 JUMPI DUP1 PUSH4 0x8F7DCFA3 EQ PUSH2 0xE2 JUMPI DUP1 PUSH4 0xB2FA1C9E EQ PUSH2 0x109 JUMPI DUP1 PUSH4 0xDDF0B009 EQ PUSH2 0x132 JUMPI JUMPDEST PUSH1 0x0 DUP1 REVERT JUMPDEST CALLVALUE DUP1 ISZERO PUSH2 0x88 JUMPI PUSH1 0x0 DUP1 REVERT JUMPDEST POP PUSH2 0x94 PUSH1 0x4 CALLDATALOAD PUSH2 0x163 JUMP JUMPDEST STOP JUMPDEST PUSH2 0x94 PUSH1 0x4 CALLDATALOAD PUSH1 0x24 CALLDATALOAD PUSH2 0x252 JUMP JUMPDEST CALLVALUE DUP1 ISZERO PUSH2 0xB0 JUMPI PUSH1 0x0 DUP1 REVERT JUMPDEST POP PUSH2 0xB9 PUSH2 0x361 JUMP JUMPDEST PUSH1 0x40 DUP1 MLOAD PUSH20 0xFFFFFFFFFFFFFFFFFFFFFFFFFFFFFFFFFFFFFFFF SWAP1 SWAP3 AND DUP3 MSTORE MLOAD SWAP1 DUP2 SWAP1 SUB PUSH1 0x20 ADD SWAP1 RETURN JUMPDEST CALLVALUE DUP1 ISZERO PUSH2 0xEE JUMPI PUSH1 0x0 DUP1 REVERT JUMPDEST POP PUSH2 0xF7 PUSH2 0x37D JUMP JUMPDEST PUSH1 0x40 DUP1 MLOAD SWAP2 DUP3 MSTORE MLOAD SWAP1 DUP2 SWAP1 SUB PUSH1 0x20 ADD SWAP1 RETURN JUMPDEST CALLVALUE DUP1 ISZERO PUSH2 0x115 JUMPI PUSH1 0x0 DUP1 REVERT JUMPDEST POP PUSH2 0x11E PUSH2 0x383 JUMP JUMPDEST PUSH1 0x40 DUP1 MLOAD SWAP2 ISZERO ISZERO DUP3 MSTORE MLOAD SWAP1 DUP2 SWAP1 SUB PUSH1 0x20 ADD SWAP1 RETURN JUMPDEST CALLVALUE DUP1 ISZERO PUSH2 0x13E JUMPI PUSH1 0x0 DUP1 REVERT JUMPDEST POP PUSH2 0x14A PUSH1 0x4 CALLDATALOAD PUSH2 0x389 JUMP JUMPDEST PUSH1 0x40 DUP1 MLOAD SWAP3 DUP4 MSTORE PUSH1 0x20 DUP4 ADD SWAP2 SWAP1 SWAP2 MSTORE DUP1 MLOAD SWAP2 DUP3 SWAP1 SUB ADD SWAP1 RETURN JUMPDEST PUSH1 0x2 SLOAD PUSH1 0x0 SWAP1 DUP2 SWAP1 PUSH20 0xFFFFFFFFFFFFFFFFFFFFFFFFFFFFFFFFFFFFFFFF AND CALLER EQ PUSH2 0x18C JUMPI PUSH1 0x0 DUP1 REVERT JUMPDEST PUSH1 0x0 DUP1 SLOAD DUP5 SWAP1 DUP2 LT PUSH2 0x19A JUMPI INVALID JUMPDEST SWAP1 PUSH1 0x0 MSTORE PUSH1 0x20 PUSH1 0x0 KECCAK256 SWAP1 PUSH1 0x2 MUL ADD PUSH1 0x1 ADD SLOAD TIMESTAMP LT ISZERO ISZERO ISZERO PUSH2 0x1BA JUMPI PUSH1 0x0 DUP1 REVERT JUMPDEST POP POP PUSH1 0x1 SLOAD PUSH1 0x0 SWAP1 JUMPDEST DUP3 DUP2 GT PUSH2 0x218 JUMPI PUSH1 0x0 DUP1 SLOAD DUP3 SWAP1 DUP2 LT PUSH2 0x1D8 JUMPI INVALID JUMPDEST PUSH1 0x0 SWAP2 DUP3 MSTORE PUSH1 0x20 DUP3 KECCAK256 PUSH1 0x2 SWAP1 SWAP2 MUL ADD SLOAD DUP2 SLOAD SWAP4 ADD SWAP3 DUP3 SWAP1 DUP2 LT PUSH2 0x1F7 JUMPI INVALID JUMPDEST PUSH1 0x0 SWAP2 DUP3 MSTORE PUSH1 0x20 DUP3 KECCAK256 PUSH1 0x2 SWAP1 SWAP2 MUL ADD DUP2 DUP2 SSTORE PUSH1 0x1 SWAP1 DUP2 ADD SWAP2 SWAP1 SWAP2 SSTORE ADD PUSH2 0x1C3 JUMP JUMPDEST PUSH1 0x1 DUP1 DUP5 ADD SWAP1 SSTORE PUSH1 0x40 MLOAD CALLER SWAP1 DUP4 ISZERO PUSH2 0x8FC MUL SWAP1 DUP5 SWAP1 PUSH1 0x0 DUP2 DUP2 DUP2 DUP6 DUP9 DUP9 CALL SWAP4 POP POP POP POP ISZERO DUP1 ISZERO PUSH2 0x24C JUMPI RETURNDATASIZE PUSH1 0x0 DUP1 RETURNDATACOPY RETURNDATASIZE PUSH1 0x0 REVERT JUMPDEST POP POP POP POP JUMP JUMPDEST PUSH1 0x2 SLOAD PUSH1 0x0 SWAP1 PUSH20 0xFFFFFFFFFFFFFFFFFFFFFFFFFFFFFFFFFFFFFFFF AND CALLER EQ PUSH2 0x279 JUMPI PUSH1 0x0 DUP1 REVERT JUMPDEST PUSH1 0x1 SLOAD DUP4 LT ISZERO DUP1 ISZERO PUSH2 0x28C JUMPI POP PUSH1 0x0 SLOAD DUP4 LT JUMPDEST ISZERO PUSH2 0x2BC JUMPI PUSH1 0x0 DUP1 SLOAD DUP5 SWAP1 DUP2 LT PUSH2 0x29F JUMPI INVALID JUMPDEST PUSH1 0x0 SWAP2 DUP3 MSTORE PUSH1 0x20 SWAP1 SWAP2 KECCAK256 PUSH1 0x2 SWAP1 SWAP2 MUL ADD DUP1 SLOAD CALLVALUE ADD DUP2 SSTORE SWAP1 POP PUSH2 0x35C JUMP JUMPDEST PUSH1 0x0 DUP1 SLOAD PUSH1 0x0 NOT DUP2 ADD SWAP1 DUP2 LT PUSH2 0x2CE JUMPI INVALID JUMPDEST SWAP1 PUSH1 0x0 MSTORE PUSH1 0x20 PUSH1 0x0 KECCAK256 SWAP1 PUSH1 0x2 MUL ADD PUSH1 0x1 ADD SLOAD PUSH3 0x15180 ADD DUP3 LT ISZERO ISZERO ISZERO PUSH2 0x2F3 JUMPI PUSH1 0x0 DUP1 REVERT JUMPDEST CALLVALUE DUP2 SSTORE PUSH1 0x1 DUP1 DUP3 ADD DUP4 DUP2 SSTORE PUSH1 0x0 DUP1 SLOAD SWAP3 DUP4 ADD DUP2 SSTORE DUP1 MSTORE DUP3 SLOAD PUSH32 0x290DECD9548B62A8D60345A988386FC84BA6BC95484008F6362F93160EF3E563 PUSH1 0x2 SWAP1 SWAP4 MUL SWAP3 DUP4 ADD SSTORE SLOAD PUSH32 0x290DECD9548B62A8D60345A988386FC84BA6BC95484008F6362F93160EF3E564 SWAP1 SWAP2 ADD SSTORE JUMPDEST POP POP POP JUMP JUMPDEST PUSH1 0x2 SLOAD PUSH20 0xFFFFFFFFFFFFFFFFFFFFFFFFFFFFFFFFFFFFFFFF AND DUP2 JUMP JUMPDEST PUSH1 0x1 SLOAD DUP2 JUMP JUMPDEST ADDRESS BALANCE ISZERO SWAP1 JUMP JUMPDEST PUSH1 0x0 DUP1 SLOAD DUP3 SWAP1 DUP2 LT PUSH2 0x397 JUMPI INVALID JUMPDEST PUSH1 0x0 SWAP2 DUP3 MSTORE PUSH1 0x20 SWAP1 SWAP2 KECCAK256 PUSH1 0x2 SWAP1 SWAP2 MUL ADD DUP1 SLOAD PUSH1 0x1 SWAP1 SWAP2 ADD SLOAD SWAP1 SWAP2 POP DUP3 JUMP STOP LOG1 PUSH6 0x627A7A723058 KECCAK256 SWAP5 PUSH21 0xE20296DFD26A3BD3D992A841EA5A1B53335214349C DUP6 0xba 0x49 SWAP9 MUL REVERT 0xc3 EQ SWAP5 STOP 0x29 ",
  "sha1": "ff445b14ef83b8113a36879167c8f4ed0437fba6",
  "source": "pragma solidity ^0.4.21;\n\ncontract FiftyYearsChallenge {\n    struct Contribution {\n        uint256 amount;\n        uint256 unlockTimestamp;\n    }\n    Contribution[] public queue;\n    uint256 public head;\n\n    address public owner;\n\n    function FiftyYearsChallenge(address player) public payable {\n        require(msg.value == 1 ether);\n\n        owner = player;\n        queue.push(Contribution(msg.value, now + 50 years));\n    }\n\n    function isComplete() public view returns (bool) {\n        return address(this).balance == 0;\n    }\n\n    function upsert(uint256 index, uint256 timestamp) public payable {\n        require(msg.sender == owner);\n\n        if (index >= head && index < queue.length) {\n            // Update existing contribution amount without updating timestamp.\n            Contribution storage contribution = queue[index];\n            contribution.amount += msg.value;\n        } else {\n            // Append a new contribution. Require that each contribution unlock\n            // at least 1 day after the previous one.\n            require(\n                timestamp >= queue[queue.length - 1].unlockTimestamp + 1 days\n            );\n\n            contribution.amount = msg.value;\n            contribution.unlockTimestamp = timestamp;\n            queue.push(contribution);\n        }\n    }\n\n    function withdraw(uint256 index) public {\n        require(msg.sender == owner);\n        require(now >= queue[index].unlockTimestamp);\n\n        // Withdraw this and any earlier contributions.\n        uint256 total = 0;\n        for (uint256 i = head; i <= index; i++) {\n            total += queue[i].amount;\n\n            // Reclaim storage.\n            delete queue[i];\n        }\n\n        // Move the head of the queue forward so we don't have to loop over\n        // already-withdrawn contributions.\n        head = index + 1;\n\n        msg.sender.transfer(total);\n    }\n}\n",
  "sourcePath": "contracts/Fifty-years.sol",
  "type": "contract"
}