{
  "abi": [
    {
      "constant": false,
      "inputs": [],
      "name": "authenticate",
      "outputs": [],
      "payable": false,
      "stateMutability": "nonpayable",
      "type": "function"
    },
    {
      "constant": true,
      "inputs": [],
      "name": "isComplete",
      "outputs": [
        {
          "name": "",
          "type": "bool"
        }
      ],
      "payable": false,
      "stateMutability": "view",
      "type": "function"
    }
  ],
  "bytecode": "608060405234801561001057600080fd5b5061025e806100206000396000f30060806040526004361061004b5763ffffffff7c0100000000000000000000000000000000000000000000000000000000600035041663380c7a678114610050578063b2fa1c9e14610067575b600080fd5b34801561005c57600080fd5b50610065610090565b005b34801561007357600080fd5b5061007c6100c7565b604080519115158252519081900360200190f35b610099336100d0565b15156100a457600080fd5b6100ad3361018e565b15156100b857600080fd5b6000805460ff19166001179055565b60005460ff1681565b60007f736d617278000000000000000000000000000000000000000000000000000000600019168273ffffffffffffffffffffffffffffffffffffffff166306fdde036040518163ffffffff167c0100000000000000000000000000000000000000000000000000000000028152600401602060405180830381600087803b15801561015b57600080fd5b505af115801561016f573d6000803e3d6000fd5b505050506040513d602081101561018557600080fd5b50511492915050565b60006c0100000000000000000000000082026f0badc0de0000000000000000000000006f0fffffff000000000000000000000000835b602281101561022457826bffffffffffffffffffffffff19168285166bffffffffffffffffffffffff191614156101fe5760019450610229565b60106bffffffffffffffffffffffff1993841681029392909216909102906001016101c4565b600094505b505050509190505600a165627a7a72305820a3052aba3adde93561b4ccd9217fba077d778eeda564d9f78a14a4436b7814060029",
  "bytecodeSha1": "786efd3411b7a24814c2419fc3685fd175a880e9",
  "compiler": {
    "evm_version": "byzantium",
    "optimizer": {
      "enabled": true,
      "runs": 200
    },
    "version": "0.4.26+commit.4563c3fc"
  },
  "contractName": "FuzzyIdentityChallenge",
  "language": "Solidity",
  "natspec": {
    "methods": {}
  },
  "opcodes": "PUSH1 0x80 PUSH1 0x40 MSTORE PUSH1 0x4 CALLDATASIZE LT PUSH2 0x4B JUMPI PUSH4 0xFFFFFFFF PUSH29 0x100000000000000000000000000000000000000000000000000000000 PUSH1 0x0 CALLDATALOAD DIV AND PUSH4 0x380C7A67 DUP2 EQ PUSH2 0x50 JUMPI DUP1 PUSH4 0xB2FA1C9E EQ PUSH2 0x67 JUMPI JUMPDEST PUSH1 0x0 DUP1 REVERT JUMPDEST CALLVALUE DUP1 ISZERO PUSH2 0x5C JUMPI PUSH1 0x0 DUP1 REVERT JUMPDEST POP PUSH2 0x65 PUSH2 0x90 JUMP JUMPDEST STOP JUMPDEST CALLVALUE DUP1 ISZERO PUSH2 0x73 JUMPI PUSH1 0x0 DUP1 REVERT JUMPDEST POP PUSH2 0x7C PUSH2 0xC7 JUMP JUMPDEST PUSH1 0x40 DUP1 MLOAD SWAP2 ISZERO ISZERO DUP3 MSTORE MLOAD SWAP1 DUP2 SWAP1 SUB PUSH1 0x20 ADD SWAP1 RETURN JUMPDEST PUSH2 0x99 CALLER PUSH2 0xD0 JUMP JUMPDEST ISZERO ISZERO PUSH2 0xA4 JUMPI PUSH1 0x0 DUP1 REVERT JUMPDEST PUSH2 0xAD CALLER PUSH2 0x18E JUMP JUMPDEST ISZERO ISZERO PUSH2 0xB8 JUMPI PUSH1 0x0 DUP1 REVERT JUMPDEST PUSH1 0x0 DUP1 SLOAD PUSH1 0xFF NOT AND PUSH1 0x1 OR SWAP1 SSTORE JUMP JUMPDEST PUSH1 0x0 SLOAD PUSH1 0xFF AND DUP2 JUMP JUMPDEST PUSH1 0x0 PUSH32 0x736D617278000000000000000000000000000000000000000000000000000000 PUSH1 0x0 NOT AND DUP3 PUSH20 0xFFFFFFFFFFFFFFFFFFFFFFFFFFFFFFFFFFFFFFFF AND PUSH4 0x6FDDE03 PUSH1 0x40 MLOAD DUP2 PUSH4 0xFFFFFFFF AND PUSH29 0x100000000000000000000000000000000000000000000000000000000 MUL DUP2 MSTORE PUSH1 0x4 ADD PUSH1 0x20 PUSH1 0x40 MLOAD DUP1 DUP4 SUB DUP2 PUSH1 0x0 DUP8 DUP1 EXTCODESIZE ISZERO DUP1 ISZERO PUSH2 0x15B JUMPI PUSH1 0x0 DUP1 REVERT JUMPDEST POP GAS CALL ISZERO DUP1 ISZERO PUSH2 0x16F JUMPI RETURNDATASIZE PUSH1 0x0 DUP1 RETURNDATACOPY RETURNDATASIZE PUSH1 0x0 REVERT JUMPDEST POP POP POP POP PUSH1 0x40 MLOAD RETURNDATASIZE PUSH1 0x20 DUP2 LT ISZERO PUSH2 0x185 JUMPI PUSH1 0x0 DUP1 REVERT JUMPDEST POP MLOAD EQ SWAP3 SWAP2 POP POP JUMP JUMPDEST PUSH1 0x0 PUSH13 0x1000000000000000000000000 DUP3 MUL PUSH16 0xBADC0DE000000000000000000000000 PUSH16 0xFFFFFFF000000000000000000000000 DUP4 JUMPDEST PUSH1 0x22 DUP2 LT ISZERO PUSH2 0x224 JUMPI DUP3 PUSH12 0xFFFFFFFFFFFFFFFFFFFFFFFF NOT AND DUP3 DUP6 AND PUSH12 0xFFFFFFFFFFFFFFFFFFFFFFFF NOT AND EQ ISZERO PUSH2 0x1FE JUMPI PUSH1 0x1 SWAP5 POP PUSH2 0x229 JUMP JUMPDEST PUSH1 0x10 PUSH12 0xFFFFFFFFFFFFFFFFFFFFFFFF NOT SWAP4 DUP5 AND DUP2 MUL SWAP4 SWAP3 SWAP1 SWAP3 AND SWAP1 SWAP2 MUL SWAP1 PUSH1 0x1 ADD PUSH2 0x1C4 JUMP JUMPDEST PUSH1 0x0 SWAP5 POP JUMPDEST POP POP POP POP SWAP2 SWAP1 POP JUMP STOP LOG1 PUSH6 0x627A7A723058 KECCAK256 LOG3 SDIV 0x2a 0xba GASPRICE 0xdd 0xe9 CALLDATALOAD PUSH2 0xB4CC 0xd9 0x21 PUSH32 0xBA077D778EEDA564D9F78A14A4436B7814060029000000000000000000000000 ",
  "sha1": "838a92a0db9fdfd61d1178e83a13c34586778825",
  "source": "pragma solidity ^0.4.21;\n\ninterface IName {\n    function name() external view returns (bytes32);\n}\n\ncontract FuzzyIdentityChallenge {\n    bool public isComplete;\n\n    function authenticate() public {\n        require(isSmarx(msg.sender));\n        require(isBadCode(msg.sender));\n\n        isComplete = true;\n    }\n\n    function isSmarx(address addr) internal view returns (bool) {\n        return IName(addr).name() == bytes32(\"smarx\");\n    }\n\n    function isBadCode(address _addr) internal pure returns (bool) {\n        bytes20 addr = bytes20(_addr);\n        bytes20 id = hex\"000000000000000000000000000000000badc0de\";\n        bytes20 mask = hex\"000000000000000000000000000000000fffffff\";\n\n        for (uint256 i = 0; i < 34; i++) {\n            if (addr & mask == id) {\n                return true;\n            }\n            mask <<= 4;\n            id <<= 4;\n        }\n\n        return false;\n    }\n}\n",
  "sourcePath": "contracts/Fuzzy-identity.sol",
  "type": "contract"
}