{
  "abi": [
    {
      "constant": false,
      "inputs": [
        {
          "name": "n",
          "type": "uint8"
        }
      ],
      "name": "guess",
      "outputs": [],
      "payable": true,
      "stateMutability": "payable",
      "type": "function"
    },
    {
      "constant": true,
      "inputs": [],
      "name": "isComplete",
      "outputs": [
        {
          "name": "",
          "type": "bool"
        }
      ],
      "payable": false,
      "stateMutability": "view",
      "type": "function"
    },
    {
      "inputs": [],
      "payable": true,
      "stateMutability": "payable",
      "type": "constructor"
    }
  ],
  "bytecode": "60806040526000805460ff1916602a179055670de0b6b3a7640000341461002557600080fd5b610109806100346000396000f30060806040526004361060485763ffffffff7c01000000000000000000000000000000000000000000000000000000006000350416634ba4c16b8114604d578063b2fa1c9e14605b575b600080fd5b605960ff600435166081565b005b348015606657600080fd5b50606d60d7565b604080519115158252519081900360200190f35b670de0b6b3a76400003414609457600080fd5b60005460ff8281169116141560d4576040513390600090671bc16d674ec800009082818181858883f1935050505015801560d2573d6000803e3d6000fd5b505b50565b303115905600a165627a7a72305820001179b2dd7ff875009357ce501cd334e91415e7b3171895e2d03cfb51565f9a0029",
  "bytecodeSha1": "8ace50c1964df27bd7f3c7b6cb7b96d62ff73c75",
  "compiler": {
    "evm_version": "byzantium",
    "optimizer": {
      "enabled": true,
      "runs": 200
    },
    "version": "0.4.26+commit.4563c3fc"
  },
  "contractName": "GuessTheNumberChallenge",
  "language": "Solidity",
  "natspec": {
    "methods": {}
  },
  "opcodes": "PUSH1 0x80 PUSH1 0x40 MSTORE PUSH1 0x4 CALLDATASIZE LT PUSH1 0x48 JUMPI PUSH4 0xFFFFFFFF PUSH29 0x100000000000000000000000000000000000000000000000000000000 PUSH1 0x0 CALLDATALOAD DIV AND PUSH4 0x4BA4C16B DUP2 EQ PUSH1 0x4D JUMPI DUP1 PUSH4 0xB2FA1C9E EQ PUSH1 0x5B JUMPI JUMPDEST PUSH1 0x0 DUP1 REVERT JUMPDEST PUSH1 0x59 PUSH1 0xFF PUSH1 0x4 CALLDATALOAD AND PUSH1 0x81 JUMP JUMPDEST STOP JUMPDEST CALLVALUE DUP1 ISZERO PUSH1 0x66 JUMPI PUSH1 0x0 DUP1 REVERT JUMPDEST POP PUSH1 0x6D PUSH1 0xD7 JUMP JUMPDEST PUSH1 0x40 DUP1 MLOAD SWAP2 ISZERO ISZERO DUP3 MSTORE MLOAD SWAP1 DUP2 SWAP1 SUB PUSH1 0x20 ADD SWAP1 RETURN JUMPDEST PUSH8 0xDE0B6B3A7640000 CALLVALUE EQ PUSH1 0x94 JUMPI PUSH1 0x0 DUP1 REVERT JUMPDEST PUSH1 0x0 SLOAD PUSH1 0xFF DUP3 DUP2 AND SWAP2 AND EQ ISZERO PUSH1 0xD4 JUMPI PUSH1 0x40 MLOAD CALLER SWAP1 PUSH1 0x0 SWAP1 PUSH8 0x1BC16D674EC80000 SWAP1 DUP3 DUP2 DUP2 DUP2 DUP6 DUP9 DUP4 CALL SWAP4 POP POP POP POP ISZERO DUP1 ISZERO PUSH1 0xD2 JUMPI RETURNDATASIZE PUSH1 0x0 DUP1 RETURNDATACOPY RETURNDATASIZE PUSH1 0x0 REVERT JUMPDEST POP JUMPDEST POP JUMP JUMPDEST ADDRESS BALANCE ISZERO SWAP1 JUMP STOP LOG1 PUSH6 0x627A7A723058 KECCAK256 STOP GT PUSH26 0xB2DD7FF875009357CE501CD334E91415E7B3171895E2D03CFB51 JUMP 0x5f SWAP11 STOP 0x29 ",
  "sha1": "b063d726f34288efe6095fe8234539c14e34ac16",
  "source": "pragma solidity ^0.4.21;\n\ncontract GuessTheNumberChallenge {\n    uint8 answer = 42;\n\n    function GuessTheNumberChallenge() public payable {\n        require(msg.value == 1 ether);\n    }\n\n    function isComplete() public view returns (bool) {\n        return address(this).balance == 0;\n    }\n\n    function guess(uint8 n) public payable {\n        require(msg.value == 1 ether);\n\n        if (n == answer) {\n            msg.sender.transfer(2 ether);\n        }\n    }\n}\n",
  "sourcePath": "contracts/Guess-the-number.sol",
  "type": "contract"
}