{
  "abi": [
    {
      "constant": false,
      "inputs": [
        {
          "name": "n",
          "type": "uint8"
        }
      ],
      "name": "guess",
      "outputs": [],
      "payable": true,
      "stateMutability": "payable",
      "type": "function"
    },
    {
      "constant": true,
      "inputs": [],
      "name": "isComplete",
      "outputs": [
        {
          "name": "",
          "type": "bool"
        }
      ],
      "payable": false,
      "stateMutability": "view",
      "type": "function"
    },
    {
      "inputs": [],
      "payable": true,
      "stateMutability": "payable",
      "type": "constructor"
    }
  ],
  "bytecode": "6080604052670de0b6b3a7640000341461001857600080fd5b610128806100276000396000f30060806040526004361060485763ffffffff7c01000000000000000000000000000000000000000000000000000000006000350416634ba4c16b8114604d578063b2fa1c9e14605b575b600080fd5b605960ff600435166081565b005b348015606657600080fd5b50606d60f6565b604080519115158252519081900360200190f35b6000670de0b6b3a76400003414609657600080fd5b50604080516000194301408152426020820152815190819003909101902060ff828116908216141560f2576040513390600090671bc16d674ec800009082818181858883f1935050505015801560f0573d6000803e3d6000fd5b505b5050565b303115905600a165627a7a723058203274aeed3cda6c529baf9a60ac88b5bf3aa4814ac4ce69249d0cb5cd7f72a9280029",
  "bytecodeSha1": "89d621e1b23009b34bd8babed49727ffa2cfbfcf",
  "compiler": {
    "evm_version": "byzantium",
    "optimizer": {
      "enabled": true,
      "runs": 200
    },
    "version": "0.4.26+commit.4563c3fc"
  },
  "contractName": "GuessTheNewNumberChallenge",
  "language": "Solidity",
  "natspec": {
    "methods": {}
  },
  "opcodes": "PUSH1 0x80 PUSH1 0x40 MSTORE PUSH1 0x4 CALLDATASIZE LT PUSH1 0x48 JUMPI PUSH4 0xFFFFFFFF PUSH29 0x100000000000000000000000000000000000000000000000000000000 PUSH1 0x0 CALLDATALOAD DIV AND PUSH4 0x4BA4C16B DUP2 EQ PUSH1 0x4D JUMPI DUP1 PUSH4 0xB2FA1C9E EQ PUSH1 0x5B JUMPI JUMPDEST PUSH1 0x0 DUP1 REVERT JUMPDEST PUSH1 0x59 PUSH1 0xFF PUSH1 0x4 CALLDATALOAD AND PUSH1 0x81 JUMP JUMPDEST STOP JUMPDEST CALLVALUE DUP1 ISZERO PUSH1 0x66 JUMPI PUSH1 0x0 DUP1 REVERT JUMPDEST POP PUSH1 0x6D PUSH1 0xF6 JUMP JUMPDEST PUSH1 0x40 DUP1 MLOAD SWAP2 ISZERO ISZERO DUP3 MSTORE MLOAD SWAP1 DUP2 SWAP1 SUB PUSH1 0x20 ADD SWAP1 RETURN JUMPDEST PUSH1 0x0 PUSH8 0xDE0B6B3A7640000 CALLVALUE EQ PUSH1 0x96 JUMPI PUSH1 0x0 DUP1 REVERT JUMPDEST POP PUSH1 0x40 DUP1 MLOAD PUSH1 0x0 NOT NUMBER ADD BLOCKHASH DUP2 MSTORE TIMESTAMP PUSH1 0x20 DUP3 ADD MSTORE DUP2 MLOAD SWAP1 DUP2 SWAP1 SUB SWAP1 SWAP2 ADD SWAP1 KECCAK256 PUSH1 0xFF DUP3 DUP2 AND SWAP1 DUP3 AND EQ ISZERO PUSH1 0xF2 JUMPI PUSH1 0x40 MLOAD CALLER SWAP1 PUSH1 0x0 SWAP1 PUSH8 0x1BC16D674EC80000 SWAP1 DUP3 DUP2 DUP2 DUP2 DUP6 DUP9 DUP4 CALL SWAP4 POP POP POP POP ISZERO DUP1 ISZERO PUSH1 0xF0 JUMPI RETURNDATASIZE PUSH1 0x0 DUP1 RETURNDATACOPY RETURNDATASIZE PUSH1 0x0 REVERT JUMPDEST POP JUMPDEST POP POP JUMP JUMPDEST ADDRESS BALANCE ISZERO SWAP1 JUMP STOP LOG1 PUSH6 0x627A7A723058 KECCAK256 ORIGIN PUSH21 0xAEED3CDA6C529BAF9A60AC88B5BF3AA4814AC4CE69 0x24 SWAP14 0xc 0xb5 0xcd PUSH32 0x72A9280029000000000000000000000000000000000000000000000000000000 ",
  "sha1": "69e533932e4cc491b2b54cc0a82e3e3fd030e7a8",
  "source": "pragma solidity ^0.4.21;\n\ncontract GuessTheNewNumberChallenge {\n    function GuessTheNewNumberChallenge() public payable {\n        require(msg.value == 1 ether);\n    }\n\n    function isComplete() public view returns (bool) {\n        return address(this).balance == 0;\n    }\n\n    function guess(uint8 n) public payable {\n        require(msg.value == 1 ether);\n        uint8 answer = uint8(keccak256(block.blockhash(block.number - 1), now));\n\n        if (n == answer) {\n            msg.sender.transfer(2 ether);\n        }\n    }\n}\n",
  "sourcePath": "contracts/Guess-the-new-number.sol",
  "type": "contract"
}