{
  "abi": [
    {
      "constant": false,
      "inputs": [
        {
          "name": "key",
          "type": "uint256"
        },
        {
          "name": "value",
          "type": "uint256"
        }
      ],
      "name": "set",
      "outputs": [],
      "payable": false,
      "stateMutability": "nonpayable",
      "type": "function"
    },
    {
      "constant": true,
      "inputs": [
        {
          "name": "key",
          "type": "uint256"
        }
      ],
      "name": "get",
      "outputs": [
        {
          "name": "",
          "type": "uint256"
        }
      ],
      "payable": false,
      "stateMutability": "view",
      "type": "function"
    },
    {
      "constant": true,
      "inputs": [],
      "name": "isComplete",
      "outputs": [
        {
          "name": "",
          "type": "bool"
        }
      ],
      "payable": false,
      "stateMutability": "view",
      "type": "function"
    }
  ],
  "bytecode": "608060405234801561001057600080fd5b506101a9806100206000396000f3006080604052600436106100565763ffffffff7c01000000000000000000000000000000000000000000000000000000006000350416631ab06ee5811461005b5780639507d39a14610078578063b2fa1c9e146100a2575b600080fd5b34801561006757600080fd5b506100766004356024356100cb565b005b34801561008457600080fd5b50610090600435610107565b60408051918252519081900360200190f35b3480156100ae57600080fd5b506100b761012a565b604080519115158252519081900360200190f35b60015482106100e757816001016001816100e59190610133565b505b806001838154811015156100f757fe5b6000918252602090912001555050565b600060018281548110151561011857fe5b90600052602060002001549050919050565b60005460ff1681565b8154818355818111156101575760008381526020902061015791810190830161015c565b505050565b61017a91905b808211156101765760008155600101610162565b5090565b905600a165627a7a72305820034f58cf36504aee3129651bc48ae3f4a1ddf20185682aad98a4dc616380c5650029",
  "bytecodeSha1": "3e44f48c2c5cb6475982a6a8add05ba04b005ae3",
  "compiler": {
    "evm_version": "byzantium",
    "optimizer": {
      "enabled": true,
      "runs": 200
    },
    "version": "0.4.26+commit.4563c3fc"
  },
  "contractName": "MappingChallenge",
  "language": "Solidity",
  "natspec": {
    "methods": {}
  },
  "opcodes": "PUSH1 0x80 PUSH1 0x40 MSTORE PUSH1 0x4 CALLDATASIZE LT PUSH2 0x56 JUMPI PUSH4 0xFFFFFFFF PUSH29 0x100000000000000000000000000000000000000000000000000000000 PUSH1 0x0 CALLDATALOAD DIV AND PUSH4 0x1AB06EE5 DUP2 EQ PUSH2 0x5B JUMPI DUP1 PUSH4 0x9507D39A EQ PUSH2 0x78 JUMPI DUP1 PUSH4 0xB2FA1C9E EQ PUSH2 0xA2 JUMPI JUMPDEST PUSH1 0x0 DUP1 REVERT JUMPDEST CALLVALUE DUP1 ISZERO PUSH2 0x67 JUMPI PUSH1 0x0 DUP1 REVERT JUMPDEST POP PUSH2 0x76 PUSH1 0x4 CALLDATALOAD PUSH1 0x24 CALLDATALOAD PUSH2 0xCB JUMP JUMPDEST STOP JUMPDEST CALLVALUE DUP1 ISZERO PUSH2 0x84 JUMPI PUSH1 0x0 DUP1 REVERT JUMPDEST POP PUSH2 0x90 PUSH1 0x4 CALLDATALOAD PUSH2 0x107 JUMP JUMPDEST PUSH1 0x40 DUP1 MLOAD SWAP2 DUP3 MSTORE MLOAD SWAP1 DUP2 SWAP1 SUB PUSH1 0x20 ADD SWAP1 RETURN JUMPDEST CALLVALUE DUP1 ISZERO PUSH2 0xAE JUMPI PUSH1 0x0 DUP1 REVERT JUMPDEST POP PUSH2 0xB7 PUSH2 0x12A JUMP JUMPDEST PUSH1 0x40 DUP1 MLOAD SWAP2 ISZERO ISZERO DUP3 MSTORE MLOAD SWAP1 DUP2 SWAP1 SUB PUSH1 0x20 ADD SWAP1 RETURN JUMPDEST PUSH1 0x1 SLOAD DUP3 LT PUSH2 0xE7 JUMPI DUP2 PUSH1 0x1 ADD PUSH1 0x1 DUP2 PUSH2 0xE5 SWAP2 SWAP1 PUSH2 0x133 JUMP JUMPDEST POP JUMPDEST DUP1 PUSH1 0x1 DUP4 DUP2 SLOAD DUP2 LT ISZERO ISZERO PUSH2 0xF7 JUMPI INVALID JUMPDEST PUSH1 0x0 SWAP2 DUP3 MSTORE PUSH1 0x20 SWAP1 SWAP2 KECCAK256 ADD SSTORE POP POP JUMP JUMPDEST PUSH1 0x0 PUSH1 0x1 DUP3 DUP2 SLOAD DUP2 LT ISZERO ISZERO PUSH2 0x118 JUMPI INVALID JUMPDEST SWAP1 PUSH1 0x0 MSTORE PUSH1 0x20 PUSH1 0x0 KECCAK256 ADD SLOAD SWAP1 POP SWAP2 SWAP1 POP JUMP JUMPDEST PUSH1 0x0 SLOAD PUSH1 0xFF AND DUP2 JUMP JUMPDEST DUP2 SLOAD DUP2 DUP4 SSTORE DUP2 DUP2 GT ISZERO PUSH2 0x157 JUMPI PUSH1 0x0 DUP4 DUP2 MSTORE PUSH1 0x20 SWAP1 KECCAK256 PUSH2 0x157 SWAP2 DUP2 ADD SWAP1 DUP4 ADD PUSH2 0x15C JUMP JUMPDEST POP POP POP JUMP JUMPDEST PUSH2 0x17A SWAP2 SWAP1 JUMPDEST DUP1 DUP3 GT ISZERO PUSH2 0x176 JUMPI PUSH1 0x0 DUP2 SSTORE PUSH1 0x1 ADD PUSH2 0x162 JUMP JUMPDEST POP SWAP1 JUMP JUMPDEST SWAP1 JUMP STOP LOG1 PUSH6 0x627A7A723058 KECCAK256 SUB 0x4f PC 0xcf CALLDATASIZE POP 0x4a 0xee BALANCE 0x29 PUSH6 0x1BC48AE3F4A1 0xdd CALLCODE ADD DUP6 PUSH9 0x2AAD98A4DC616380C5 PUSH6 0x2900000000 ",
  "sha1": "639659d466e5223d3e3f7c9a521b3c44648c555f",
  "source": "pragma solidity ^0.4.21;\n\ncontract MappingChallenge {\n    bool public isComplete;\n    uint256[] map;\n\n    function set(uint256 key, uint256 value) public {\n        // Expand dynamic array as needed\n        if (map.length <= key) {\n            map.length = key + 1;\n        }\n\n        map[key] = value;\n    }\n\n    function get(uint256 key) public view returns (uint256) {\n        return map[key];\n    }\n}\n",
  "sourcePath": "contracts/Mapping.sol",
  "type": "contract"
}