{
  "abi": [
    {
      "constant": true,
      "inputs": [],
      "name": "isComplete",
      "outputs": [
        {
          "name": "",
          "type": "bool"
        }
      ],
      "payable": false,
      "stateMutability": "view",
      "type": "function"
    },
    {
      "inputs": [
        {
          "name": "_player",
          "type": "address"
        },
        {
          "name": "_cte",
          "type": "address"
        }
      ],
      "payable": false,
      "stateMutability": "nonpayable",
      "type": "constructor"
    }
  ],
  "bytecode": "608060405234801561001057600080fd5b5060405160408061021783398101604052805160209091015160018054600160a060020a03938416600160a060020a031991821617909155600080549390921692169190911790556101b0806100676000396000f3006080604052600436106100405763ffffffff7c0100000000000000000000000000000000000000000000000000000000600035041663b2fa1c9e8114610045575b600080fd5b34801561005157600080fd5b5061005a61006e565b604080519115158252519081900360200190f35b60008054600154604080517f6790081c00000000000000000000000000000000000000000000000000000000815273ffffffffffffffffffffffffffffffffffffffff928316600482015290519190921691636790081c91602480830192602092919082900301818787803b1580156100e657600080fd5b505af11580156100fa573d6000803e3d6000fd5b505050506040513d602081101561011057600080fd5b505160001a7f0100000000000000000000000000000000000000000000000000000000000000027effffffffffffffffffffffffffffffffffffffffffffffffffffffffffffff191660007f01000000000000000000000000000000000000000000000000000000000000000214159050905600a165627a7a72305820c06ce20a60e2e605b38646f544fdf4df71c2a5a00876a6646eeb1591571563250029",
  "bytecodeSha1": "9c7af58aa6cfa68ec22aa907c4932424d874de30",
  "compiler": {
    "evm_version": "byzantium",
    "optimizer": {
      "enabled": true,
      "runs": 200
    },
    "version": "0.4.26+commit.4563c3fc"
  },
  "contractName": "NicknameChallenge",
  "language": "Solidity",
  "natspec": {
    "methods": {}
  },
  "opcodes": "PUSH1 0x80 PUSH1 0x40 MSTORE PUSH1 0x4 CALLDATASIZE LT PUSH2 0x40 JUMPI PUSH4 0xFFFFFFFF PUSH29 0x100000000000000000000000000000000000000000000000000000000 PUSH1 0x0 CALLDATALOAD DIV AND PUSH4 0xB2FA1C9E DUP2 EQ PUSH2 0x45 JUMPI JUMPDEST PUSH1 0x0 DUP1 REVERT JUMPDEST CALLVALUE DUP1 ISZERO PUSH2 0x51 JUMPI PUSH1 0x0 DUP1 REVERT JUMPDEST POP PUSH2 0x5A PUSH2 0x6E JUMP JUMPDEST PUSH1 0x40 DUP1 MLOAD SWAP2 ISZERO ISZERO DUP3 MSTORE MLOAD SWAP1 DUP2 SWAP1 SUB PUSH1 0x20 ADD SWAP1 RETURN JUMPDEST PUSH1 0x0 DUP1 SLOAD PUSH1 0x1 SLOAD PUSH1 0x40 DUP1 MLOAD PUSH32 0x6790081C00000000000000000000000000000000000000000000000000000000 DUP2 MSTORE PUSH20 0xFFFFFFFFFFFFFFFFFFFFFFFFFFFFFFFFFFFFFFFF SWAP3 DUP4 AND PUSH1 0x4 DUP3 ADD MSTORE SWAP1 MLOAD SWAP2 SWAP1 SWAP3 AND SWAP2 PUSH4 0x6790081C SWAP2 PUSH1 0x24 DUP1 DUP4 ADD SWAP3 PUSH1 0x20 SWAP3 SWAP2 SWAP1 DUP3 SWAP1 SUB ADD DUP2 DUP8 DUP8 DUP1 EXTCODESIZE ISZERO DUP1 ISZERO PUSH2 0xE6 JUMPI PUSH1 0x0 DUP1 REVERT JUMPDEST POP GAS CALL ISZERO DUP1 ISZERO PUSH2 0xFA JUMPI RETURNDATASIZE PUSH1 0x0 DUP1 RETURNDATACOPY RETURNDATASIZE PUSH1 0x0 REVERT JUMPDEST POP POP POP POP PUSH1 0x40 MLOAD RETURNDATASIZE PUSH1 0x20 DUP2 LT ISZERO PUSH2 0x110 JUMPI PUSH1 0x0 DUP1 REVERT JUMPDEST POP MLOAD PUSH1 0x0 BYTE PUSH32 0x100000000000000000000000000000000000000000000000000000000000000 MUL PUSH31 0xFFFFFFFFFFFFFFFFFFFFFFFFFFFFFFFFFFFFFFFFFFFFFFFFFFFFFFFFFFFFFF NOT AND PUSH1 0x0 PUSH32 0x100000000000000000000000000000000000000000000000000000000000000 MUL EQ ISZERO SWAP1 POP SWAP1 JUMP STOP LOG1 PUSH6 0x627A7A723058 KECCAK256 0xc0 PUSH13 0xE20A60E2E605B38646F544FDF4 0xdf PUSH18 0xC2A5A00876A6646EEB159157156325002900 ",
  "sha1": "d50b52e3333d5ce4887d1467916bbf9edffd10e0",
  "source": "pragma solidity ^0.4.21;\n\n// Relevant part of the CaptureTheEther contract.\ncontract CaptureTheEther {\n    mapping(address => bytes32) public nicknameOf;\n\n    function setNickname(bytes32 nickname) public {\n        nicknameOf[msg.sender] = nickname;\n    }\n}\n\n// Challenge contract. You don't need to do anything with this; it just verifies\n// that you set a nickname for yourself.\ncontract NicknameChallenge {\n    CaptureTheEther cte;\n    address player;\n\n    // Your address gets passed in as a constructor parameter.\n    function NicknameChallenge(address _player, address _cte) public {\n        player = _player;\n        cte = CaptureTheEther(_cte);\n    }\n\n    // Check that the first character is not null.\n    function isComplete() public view returns (bool) {\n        return cte.nicknameOf(player)[0] != 0;\n    }\n}\n",
  "sourcePath": "contracts/Choose-a-nickname.sol",
  "type": "contract"
}