{
  "abi": [
    {
      "constant": false,
      "inputs": [],
      "name": "settle",
      "outputs": [],
      "payable": false,
      "stateMutability": "nonpayable",
      "type": "function"
    },
    {
      "constant": true,
      "inputs": [],
      "name": "isComplete",
      "outputs": [
        {
          "name": "",
          "type": "bool"
        }
      ],
      "payable": false,
      "stateMutability": "view",
      "type": "function"
    },
    {
      "constant": false,
      "inputs": [
        {
          "name": "hash",
          "type": "bytes32"
        }
      ],
      "name": "lockInGuess",
      "outputs": [],
      "payable": true,
      "stateMutability": "payable",
      "type": "function"
    },
    {
      "inputs": [],
      "payable": true,
      "stateMutability": "payable",
      "type": "constructor"
    }
  ],
  "bytecode": "6080604052670de0b6b3a7640000341461001857600080fd5b6101d0806100276000396000f3006080604052600436106100565763ffffffff7c010000000000000000000000000000000000000000000000000000000060003504166311da60b4811461005b578063b2fa1c9e14610072578063ed7f559c1461009b575b600080fd5b34801561006757600080fd5b506100706100a6565b005b34801561007e57600080fd5b5061008761013c565b604080519115158252519081900360200190f35b610070600435610142565b6000805473ffffffffffffffffffffffffffffffffffffffff1633146100cb57600080fd5b60025443116100d957600080fd5b506002546000805473ffffffffffffffffffffffffffffffffffffffff19169055600154904090811415610139576040513390600090671bc16d674ec800009082818181858883f19350505050158015610137573d6000803e3d6000fd5b505b50565b30311590565b60005473ffffffffffffffffffffffffffffffffffffffff161561016557600080fd5b670de0b6b3a7640000341461017957600080fd5b6000805473ffffffffffffffffffffffffffffffffffffffff191633179055600190815543016002555600a165627a7a7230582051453e1d38fb65347ba97efd06d8393eba421f60ad9e68241c034cbb2b2aad3d0029",
  "bytecodeSha1": "0bc7527ef7bfae33f7be40e4a8fc1d3da40f3b08",
  "compiler": {
    "evm_version": "byzantium",
    "optimizer": {
      "enabled": true,
      "runs": 200
    },
    "version": "0.4.26+commit.4563c3fc"
  },
  "contractName": "PredictTheBlockHashChallenge",
  "language": "Solidity",
  "natspec": {
    "methods": {}
  },
  "opcodes": "PUSH1 0x80 PUSH1 0x40 MSTORE PUSH1 0x4 CALLDATASIZE LT PUSH2 0x56 JUMPI PUSH4 0xFFFFFFFF PUSH29 0x100000000000000000000000000000000000000000000000000000000 PUSH1 0x0 CALLDATALOAD DIV AND PUSH4 0x11DA60B4 DUP2 EQ PUSH2 0x5B JUMPI DUP1 PUSH4 0xB2FA1C9E EQ PUSH2 0x72 JUMPI DUP1 PUSH4 0xED7F559C EQ PUSH2 0x9B JUMPI JUMPDEST PUSH1 0x0 DUP1 REVERT JUMPDEST CALLVALUE DUP1 ISZERO PUSH2 0x67 JUMPI PUSH1 0x0 DUP1 REVERT JUMPDEST POP PUSH2 0x70 PUSH2 0xA6 JUMP JUMPDEST STOP JUMPDEST CALLVALUE DUP1 ISZERO PUSH2 0x7E JUMPI PUSH1 0x0 DUP1 REVERT JUMPDEST POP PUSH2 0x87 PUSH2 0x13C JUMP JUMPDEST PUSH1 0x40 DUP1 MLOAD SWAP2 ISZERO ISZERO DUP3 MSTORE MLOAD SWAP1 DUP2 SWAP1 SUB PUSH1 0x20 ADD SWAP1 RETURN JUMPDEST PUSH2 0x70 PUSH1 0x4 CALLDATALOAD PUSH2 0x142 JUMP JUMPDEST PUSH1 0x0 DUP1 SLOAD PUSH20 0xFFFFFFFFFFFFFFFFFFFFFFFFFFFFFFFFFFFFFFFF AND CALLER EQ PUSH2 0xCB JUMPI PUSH1 0x0 DUP1 REVERT JUMPDEST PUSH1 0x2 SLOAD NUMBER GT PUSH2 0xD9 JUMPI PUSH1 0x0 DUP1 REVERT JUMPDEST POP PUSH1 0x2 SLOAD PUSH1 0x0 DUP1 SLOAD PUSH20 0xFFFFFFFFFFFFFFFFFFFFFFFFFFFFFFFFFFFFFFFF NOT AND SWAP1 SSTORE PUSH1 0x1 SLOAD SWAP1 BLOCKHASH SWAP1 DUP2 EQ ISZERO PUSH2 0x139 JUMPI PUSH1 0x40 MLOAD CALLER SWAP1 PUSH1 0x0 SWAP1 PUSH8 0x1BC16D674EC80000 SWAP1 DUP3 DUP2 DUP2 DUP2 DUP6 DUP9 DUP4 CALL SWAP4 POP POP POP POP ISZERO DUP1 ISZERO PUSH2 0x137 JUMPI RETURNDATASIZE PUSH1 0x0 DUP1 RETURNDATACOPY RETURNDATASIZE PUSH1 0x0 REVERT JUMPDEST POP JUMPDEST POP JUMP JUMPDEST ADDRESS BALANCE ISZERO SWAP1 JUMP JUMPDEST PUSH1 0x0 SLOAD PUSH20 0xFFFFFFFFFFFFFFFFFFFFFFFFFFFFFFFFFFFFFFFF AND ISZERO PUSH2 0x165 JUMPI PUSH1 0x0 DUP1 REVERT JUMPDEST PUSH8 0xDE0B6B3A7640000 CALLVALUE EQ PUSH2 0x179 JUMPI PUSH1 0x0 DUP1 REVERT JUMPDEST PUSH1 0x0 DUP1 SLOAD PUSH20 0xFFFFFFFFFFFFFFFFFFFFFFFFFFFFFFFFFFFFFFFF NOT AND CALLER OR SWAP1 SSTORE PUSH1 0x1 SWAP1 DUP2 SSTORE NUMBER ADD PUSH1 0x2 SSTORE JUMP STOP LOG1 PUSH6 0x627A7A723058 KECCAK256 MLOAD GASLIMIT RETURNDATACOPY SAR CODESIZE CREATE2 PUSH6 0x347BA97EFD06 0xd8 CODECOPY RETURNDATACOPY 0xba TIMESTAMP 0x1f PUSH1 0xAD SWAP15 PUSH9 0x241C034CBB2B2AAD3D STOP 0x29 ",
  "sha1": "0f9aef74dfaebbee4f8f4da5afde70d23ed5c803",
  "source": "pragma solidity ^0.4.21;\n\ncontract PredictTheBlockHashChallenge {\n    address guesser;\n    bytes32 guess;\n    uint256 settlementBlockNumber;\n\n    function PredictTheBlockHashChallenge() public payable {\n        require(msg.value == 1 ether);\n    }\n\n    function isComplete() public view returns (bool) {\n        return address(this).balance == 0;\n    }\n\n    function lockInGuess(bytes32 hash) public payable {\n        require(guesser == 0);\n        require(msg.value == 1 ether);\n\n        guesser = msg.sender;\n        guess = hash;\n        settlementBlockNumber = block.number + 1;\n    }\n\n    function settle() public {\n        require(msg.sender == guesser);\n        require(block.number > settlementBlockNumber);\n\n        bytes32 answer = block.blockhash(settlementBlockNumber);\n\n        guesser = 0;\n        if (guess == answer) {\n            msg.sender.transfer(2 ether);\n        }\n    }\n}\n",
  "sourcePath": "contracts/Predict-the-block-hash.sol",
  "type": "contract"
}