{
  "abi": [
    {
      "constant": false,
      "inputs": [],
      "name": "settle",
      "outputs": [],
      "payable": false,
      "stateMutability": "nonpayable",
      "type": "function"
    },
    {
      "constant": false,
      "inputs": [
        {
          "name": "n",
          "type": "uint8"
        }
      ],
      "name": "lockInGuess",
      "outputs": [],
      "payable": true,
      "stateMutability": "payable",
      "type": "function"
    },
    {
      "constant": true,
      "inputs": [],
      "name": "isComplete",
      "outputs": [
        {
          "name": "",
          "type": "bool"
        }
      ],
      "payable": false,
      "stateMutability": "view",
      "type": "function"
    },
    {
      "inputs": [],
      "payable": true,
      "stateMutability": "payable",
      "type": "constructor"
    }
  ],
  "bytecode": "6080604052670de0b6b3a7640000341461001857600080fd5b610249806100276000396000f3006080604052600436106100565763ffffffff7c010000000000000000000000000000000000000000000000000000000060003504166311da60b4811461005b5780632c0e005414610072578063b2fa1c9e14610080575b600080fd5b34801561006757600080fd5b506100706100a9565b005b61007060ff6004351661017a565b34801561008c57600080fd5b50610095610217565b604080519115158252519081900360200190f35b6000805473ffffffffffffffffffffffffffffffffffffffff1633146100ce57600080fd5b60015443116100dc57600080fd5b5060408051600019430140815242602082015281519081900390910190206000805473ffffffffffffffffffffffffffffffffffffffff191690819055600a60ff928316069182811674010000000000000000000000000000000000000000909204161415610177576040513390600090671bc16d674ec800009082818181858883f19350505050158015610175573d6000803e3d6000fd5b505b50565b60005473ffffffffffffffffffffffffffffffffffffffff161561019d57600080fd5b670de0b6b3a764000034146101b157600080fd5b6000805460ff909216740100000000000000000000000000000000000000000274ff00000000000000000000000000000000000000001973ffffffffffffffffffffffffffffffffffffffff199093163317929092169190911790554360019081019055565b303115905600a165627a7a72305820136b9ee499183aafa2d9a8bfefbc47ca33d9060ab663e7f3b0046dd022448f010029",
  "bytecodeSha1": "a522da470ecbdbb4e41ae9948e60565475b67a35",
  "compiler": {
    "evm_version": "byzantium",
    "optimizer": {
      "enabled": true,
      "runs": 200
    },
    "version": "0.4.26+commit.4563c3fc"
  },
  "contractName": "PredictTheFutureChallenge",
  "language": "Solidity",
  "natspec": {
    "methods": {}
  },
  "opcodes": "PUSH1 0x80 PUSH1 0x40 MSTORE PUSH1 0x4 CALLDATASIZE LT PUSH2 0x56 JUMPI PUSH4 0xFFFFFFFF PUSH29 0x100000000000000000000000000000000000000000000000000000000 PUSH1 0x0 CALLDATALOAD DIV AND PUSH4 0x11DA60B4 DUP2 EQ PUSH2 0x5B JUMPI DUP1 PUSH4 0x2C0E0054 EQ PUSH2 0x72 JUMPI DUP1 PUSH4 0xB2FA1C9E EQ PUSH2 0x80 JUMPI JUMPDEST PUSH1 0x0 DUP1 REVERT JUMPDEST CALLVALUE DUP1 ISZERO PUSH2 0x67 JUMPI PUSH1 0x0 DUP1 REVERT JUMPDEST POP PUSH2 0x70 PUSH2 0xA9 JUMP JUMPDEST STOP JUMPDEST PUSH2 0x70 PUSH1 0xFF PUSH1 0x4 CALLDATALOAD AND PUSH2 0x17A JUMP JUMPDEST CALLVALUE DUP1 ISZERO PUSH2 0x8C JUMPI PUSH1 0x0 DUP1 REVERT JUMPDEST POP PUSH2 0x95 PUSH2 0x217 JUMP JUMPDEST PUSH1 0x40 DUP1 MLOAD SWAP2 ISZERO ISZERO DUP3 MSTORE MLOAD SWAP1 DUP2 SWAP1 SUB PUSH1 0x20 ADD SWAP1 RETURN JUMPDEST PUSH1 0x0 DUP1 SLOAD PUSH20 0xFFFFFFFFFFFFFFFFFFFFFFFFFFFFFFFFFFFFFFFF AND CALLER EQ PUSH2 0xCE JUMPI PUSH1 0x0 DUP1 REVERT JUMPDEST PUSH1 0x1 SLOAD NUMBER GT PUSH2 0xDC JUMPI PUSH1 0x0 DUP1 REVERT JUMPDEST POP PUSH1 0x40 DUP1 MLOAD PUSH1 0x0 NOT NUMBER ADD BLOCKHASH DUP2 MSTORE TIMESTAMP PUSH1 0x20 DUP3 ADD MSTORE DUP2 MLOAD SWAP1 DUP2 SWAP1 SUB SWAP1 SWAP2 ADD SWAP1 KECCAK256 PUSH1 0x0 DUP1 SLOAD PUSH20 0xFFFFFFFFFFFFFFFFFFFFFFFFFFFFFFFFFFFFFFFF NOT AND SWAP1 DUP2 SWAP1 SSTORE PUSH1 0xA PUSH1 0xFF SWAP3 DUP4 AND MOD SWAP2 DUP3 DUP2 AND PUSH21 0x10000000000000000000000000000000000000000 SWAP1 SWAP3 DIV AND EQ ISZERO PUSH2 0x177 JUMPI PUSH1 0x40 MLOAD CALLER SWAP1 PUSH1 0x0 SWAP1 PUSH8 0x1BC16D674EC80000 SWAP1 DUP3 DUP2 DUP2 DUP2 DUP6 DUP9 DUP4 CALL SWAP4 POP POP POP POP ISZERO DUP1 ISZERO PUSH2 0x175 JUMPI RETURNDATASIZE PUSH1 0x0 DUP1 RETURNDATACOPY RETURNDATASIZE PUSH1 0x0 REVERT JUMPDEST POP JUMPDEST POP JUMP JUMPDEST PUSH1 0x0 SLOAD PUSH20 0xFFFFFFFFFFFFFFFFFFFFFFFFFFFFFFFFFFFFFFFF AND ISZERO PUSH2 0x19D JUMPI PUSH1 0x0 DUP1 REVERT JUMPDEST PUSH8 0xDE0B6B3A7640000 CALLVALUE EQ PUSH2 0x1B1 JUMPI PUSH1 0x0 DUP1 REVERT JUMPDEST PUSH1 0x0 DUP1 SLOAD PUSH1 0xFF SWAP1 SWAP3 AND PUSH21 0x10000000000000000000000000000000000000000 MUL PUSH21 0xFF0000000000000000000000000000000000000000 NOT PUSH20 0xFFFFFFFFFFFFFFFFFFFFFFFFFFFFFFFFFFFFFFFF NOT SWAP1 SWAP4 AND CALLER OR SWAP3 SWAP1 SWAP3 AND SWAP2 SWAP1 SWAP2 OR SWAP1 SSTORE NUMBER PUSH1 0x1 SWAP1 DUP2 ADD SWAP1 SSTORE JUMP JUMPDEST ADDRESS BALANCE ISZERO SWAP1 JUMP STOP LOG1 PUSH6 0x627A7A723058 KECCAK256 SGT PUSH12 0x9EE499183AAFA2D9A8BFEFBC 0x47 0xca CALLER 0xd9 MOD EXP 0xb6 PUSH4 0xE7F3B004 PUSH14 0xD022448F01002900000000000000 ",
  "sha1": "92e410c357cf96164f32959088388f408c332eb9",
  "source": "pragma solidity ^0.4.21;\n\ncontract PredictTheFutureChallenge {\n    address guesser;\n    uint8 guess;\n    uint256 settlementBlockNumber;\n\n    function PredictTheFutureChallenge() public payable {\n        require(msg.value == 1 ether);\n    }\n\n    function isComplete() public view returns (bool) {\n        return address(this).balance == 0;\n    }\n\n    function lockInGuess(uint8 n) public payable {\n        require(guesser == 0);\n        require(msg.value == 1 ether);\n\n        guesser = msg.sender;\n        guess = n;\n        settlementBlockNumber = block.number + 1;\n    }\n\n    function settle() public {\n        require(msg.sender == guesser);\n        require(block.number > settlementBlockNumber);\n\n        uint8 answer = uint8(\n            keccak256(block.blockhash(block.number - 1), now)\n        ) % 10;\n\n        guesser = 0;\n        if (guess == answer) {\n            msg.sender.transfer(2 ether);\n        }\n    }\n}\n",
  "sourcePath": "contracts/Predict-the-future.sol",
  "type": "contract"
}