{
  "abi": [
    {
      "constant": true,
      "inputs": [],
      "name": "isComplete",
      "outputs": [
        {
          "name": "",
          "type": "bool"
        }
      ],
      "payable": false,
      "stateMutability": "view",
      "type": "function"
    },
    {
      "constant": false,
      "inputs": [
        {
          "name": "publicKey",
          "type": "bytes"
        }
      ],
      "name": "authenticate",
      "outputs": [],
      "payable": false,
      "stateMutability": "nonpayable",
      "type": "function"
    }
  ],
  "bytecode": "608060405260008054600160a060020a0319167392b28647ae1f3264661f72fb2eb9625a89d88a3117905534801561003657600080fd5b506101fa806100466000396000f30060806040526004361061004b5763ffffffff7c0100000000000000000000000000000000000000000000000000000000600035041663b2fa1c9e8114610050578063ee0d605c14610079575b600080fd5b34801561005c57600080fd5b506100656100d4565b604080519115158252519081900360200190f35b34801561008557600080fd5b506040805160206004803580820135601f81018490048402850184019095528484526100d29436949293602493928401919081908401838280828437509497506100f59650505050505050565b005b60005474010000000000000000000000000000000000000000900460ff1681565b600054604051825173ffffffffffffffffffffffffffffffffffffffff90921691839190819060208401908083835b602083106101435780518252601f199092019160209182019101610124565b6001836020036101000a03801982511681845116808217855250505050505090500191505060405180910390206001900473ffffffffffffffffffffffffffffffffffffffff1614151561019657600080fd5b506000805474ff00000000000000000000000000000000000000001916740100000000000000000000000000000000000000001790555600a165627a7a723058208dc5e9cdbcc94cfcae94cc8de55bbdc8f113ccf052cf25cd90a1585edda211570029",
  "bytecodeSha1": "3f58d682c6051cd8833ddb6a428f47f681108a0f",
  "compiler": {
    "evm_version": "byzantium",
    "optimizer": {
      "enabled": true,
      "runs": 200
    },
    "version": "0.4.26+commit.4563c3fc"
  },
  "contractName": "PublicKeyChallenge",
  "language": "Solidity",
  "natspec": {
    "methods": {}
  },
  "opcodes": "PUSH1 0x80 PUSH1 0x40 MSTORE PUSH1 0x4 CALLDATASIZE LT PUSH2 0x4B JUMPI PUSH4 0xFFFFFFFF PUSH29 0x100000000000000000000000000000000000000000000000000000000 PUSH1 0x0 CALLDATALOAD DIV AND PUSH4 0xB2FA1C9E DUP2 EQ PUSH2 0x50 JUMPI DUP1 PUSH4 0xEE0D605C EQ PUSH2 0x79 JUMPI JUMPDEST PUSH1 0x0 DUP1 REVERT JUMPDEST CALLVALUE DUP1 ISZERO PUSH2 0x5C JUMPI PUSH1 0x0 DUP1 REVERT JUMPDEST POP PUSH2 0x65 PUSH2 0xD4 JUMP JUMPDEST PUSH1 0x40 DUP1 MLOAD SWAP2 ISZERO ISZERO DUP3 MSTORE MLOAD SWAP1 DUP2 SWAP1 SUB PUSH1 0x20 ADD SWAP1 RETURN JUMPDEST CALLVALUE DUP1 ISZERO PUSH2 0x85 JUMPI PUSH1 0x0 DUP1 REVERT JUMPDEST POP PUSH1 0x40 DUP1 MLOAD PUSH1 0x20 PUSH1 0x4 DUP1 CALLDATALOAD DUP1 DUP3 ADD CALLDATALOAD PUSH1 0x1F DUP2 ADD DUP5 SWAP1 DIV DUP5 MUL DUP6 ADD DUP5 ADD SWAP1 SWAP6 MSTORE DUP5 DUP5 MSTORE PUSH2 0xD2 SWAP5 CALLDATASIZE SWAP5 SWAP3 SWAP4 PUSH1 0x24 SWAP4 SWAP3 DUP5 ADD SWAP2 SWAP1 DUP2 SWAP1 DUP5 ADD DUP4 DUP3 DUP1 DUP3 DUP5 CALLDATACOPY POP SWAP5 SWAP8 POP PUSH2 0xF5 SWAP7 POP POP POP POP POP POP POP JUMP JUMPDEST STOP JUMPDEST PUSH1 0x0 SLOAD PUSH21 0x10000000000000000000000000000000000000000 SWAP1 DIV PUSH1 0xFF AND DUP2 JUMP JUMPDEST PUSH1 0x0 SLOAD PUSH1 0x40 MLOAD DUP3 MLOAD PUSH20 0xFFFFFFFFFFFFFFFFFFFFFFFFFFFFFFFFFFFFFFFF SWAP1 SWAP3 AND SWAP2 DUP4 SWAP2 SWAP1 DUP2 SWAP1 PUSH1 0x20 DUP5 ADD SWAP1 DUP1 DUP4 DUP4 JUMPDEST PUSH1 0x20 DUP4 LT PUSH2 0x143 JUMPI DUP1 MLOAD DUP3 MSTORE PUSH1 0x1F NOT SWAP1 SWAP3 ADD SWAP2 PUSH1 0x20 SWAP2 DUP3 ADD SWAP2 ADD PUSH2 0x124 JUMP JUMPDEST PUSH1 0x1 DUP4 PUSH1 0x20 SUB PUSH2 0x100 EXP SUB DUP1 NOT DUP3 MLOAD AND DUP2 DUP5 MLOAD AND DUP1 DUP3 OR DUP6 MSTORE POP POP POP POP POP POP SWAP1 POP ADD SWAP2 POP POP PUSH1 0x40 MLOAD DUP1 SWAP2 SUB SWAP1 KECCAK256 PUSH1 0x1 SWAP1 DIV PUSH20 0xFFFFFFFFFFFFFFFFFFFFFFFFFFFFFFFFFFFFFFFF AND EQ ISZERO ISZERO PUSH2 0x196 JUMPI PUSH1 0x0 DUP1 REVERT JUMPDEST POP PUSH1 0x0 DUP1 SLOAD PUSH21 0xFF0000000000000000000000000000000000000000 NOT AND PUSH21 0x10000000000000000000000000000000000000000 OR SWAP1 SSTORE JUMP STOP LOG1 PUSH6 0x627A7A723058 KECCAK256 DUP14 0xc5 0xe9 0xcd 0xbc 0xc9 0x4c 0xfc 0xae SWAP5 0xcc DUP14 0xe5 JUMPDEST 0xbd 0xc8 CALL SGT 0xcc CREATE MSTORE 0xcf 0x25 0xcd SWAP1 LOG1 PC 0x5e 0xdd LOG2 GT JUMPI STOP 0x29 ",
  "sha1": "99d66e7c62e37656f857dd90edef3ef8167f144b",
  "source": "pragma solidity ^0.4.21;\n\ncontract PublicKeyChallenge {\n    address owner = 0x92b28647ae1f3264661f72fb2eb9625a89d88a31;\n    bool public isComplete;\n\n    function authenticate(bytes publicKey) public {\n        require(address(keccak256(publicKey)) == owner);\n\n        isComplete = true;\n    }\n}\n",
  "sourcePath": "contracts/Public-key.sol",
  "type": "contract"
}