{
  "abi": [
    {
      "constant": false,
      "inputs": [],
      "name": "collectPenalty",
      "outputs": [],
      "payable": false,
      "stateMutability": "nonpayable",
      "type": "function"
    },
    {
      "constant": false,
      "inputs": [],
      "name": "withdraw",
      "outputs": [],
      "payable": false,
      "stateMutability": "nonpayable",
      "type": "function"
    },
    {
      "constant": true,
      "inputs": [],
      "name": "isComplete",
      "outputs": [
        {
          "name": "",
          "type": "bool"
        }
      ],
      "payable": false,
      "stateMutability": "view",
      "type": "function"
    },
    {
      "inputs": [
        {
          "name": "player",
          "type": "address"
        }
      ],
      "payable": true,
      "stateMutability": "payable",
      "type": "constructor"
    }
  ],
  "bytecode": "6080604081905260018054600160a060020a031916331790556312cc0300420160035560208061025f8339810160405251670de0b6b3a7640000341461004457600080fd5b60028054600160a060020a03909216600160a060020a0319909216919091179055346000556101e7806100786000396000f3006080604052600436106100565763ffffffff7c010000000000000000000000000000000000000000000000000000000060003504166339f22f6b811461005b5780633ccfd60b14610072578063b2fa1c9e14610087575b600080fd5b34801561006757600080fd5b506100706100b0565b005b34801561007e57600080fd5b5061007061011d565b34801561009357600080fd5b5061009c6101b5565b604080519115158252519081900360200190f35b60025460009073ffffffffffffffffffffffffffffffffffffffff1633146100d757600080fd5b5060008054303190039081116100ec57600080fd5b6040513390303180156108fc02916000818181858888f19350505050158015610119573d6000803e3d6000fd5b5050565b60015473ffffffffffffffffffffffffffffffffffffffff16331461014157600080fd5b600354421015610184576040513390600a30316009020480156108fc02916000818181858888f1935050505015801561017e573d6000803e3d6000fd5b506101b3565b6040513390303180156108fc02916000818181858888f193505050501580156101b1573d6000803e3d6000fd5b505b565b303115905600a165627a7a72305820def5f41b833b2a67182a3058854cf32df60f285bc940aa4fb7e286bda668223f0029",
  "bytecodeSha1": "950776b6e580e9440cdef12f798de0e59e62685e",
  "compiler": {
    "evm_version": "byzantium",
    "optimizer": {
      "enabled": true,
      "runs": 200
    },
    "version": "0.4.26+commit.4563c3fc"
  },
  "contractName": "RetirementFundChallenge",
  "language": "Solidity",
  "natspec": {
    "methods": {}
  },
  "opcodes": "PUSH1 0x80 PUSH1 0x40 MSTORE PUSH1 0x4 CALLDATASIZE LT PUSH2 0x56 JUMPI PUSH4 0xFFFFFFFF PUSH29 0x100000000000000000000000000000000000000000000000000000000 PUSH1 0x0 CALLDATALOAD DIV AND PUSH4 0x39F22F6B DUP2 EQ PUSH2 0x5B JUMPI DUP1 PUSH4 0x3CCFD60B EQ PUSH2 0x72 JUMPI DUP1 PUSH4 0xB2FA1C9E EQ PUSH2 0x87 JUMPI JUMPDEST PUSH1 0x0 DUP1 REVERT JUMPDEST CALLVALUE DUP1 ISZERO PUSH2 0x67 JUMPI PUSH1 0x0 DUP1 REVERT JUMPDEST POP PUSH2 0x70 PUSH2 0xB0 JUMP JUMPDEST STOP JUMPDEST CALLVALUE DUP1 ISZERO PUSH2 0x7E JUMPI PUSH1 0x0 DUP1 REVERT JUMPDEST POP PUSH2 0x70 PUSH2 0x11D JUMP JUMPDEST CALLVALUE DUP1 ISZERO PUSH2 0x93 JUMPI PUSH1 0x0 DUP1 REVERT JUMPDEST POP PUSH2 0x9C PUSH2 0x1B5 JUMP JUMPDEST PUSH1 0x40 DUP1 MLOAD SWAP2 ISZERO ISZERO DUP3 MSTORE MLOAD SWAP1 DUP2 SWAP1 SUB PUSH1 0x20 ADD SWAP1 RETURN JUMPDEST PUSH1 0x2 SLOAD PUSH1 0x0 SWAP1 PUSH20 0xFFFFFFFFFFFFFFFFFFFFFFFFFFFFFFFFFFFFFFFF AND CALLER EQ PUSH2 0xD7 JUMPI PUSH1 0x0 DUP1 REVERT JUMPDEST POP PUSH1 0x0 DUP1 SLOAD ADDRESS BALANCE SWAP1 SUB SWAP1 DUP2 GT PUSH2 0xEC JUMPI PUSH1 0x0 DUP1 REVERT JUMPDEST PUSH1 0x40 MLOAD CALLER SWAP1 ADDRESS BALANCE DUP1 ISZERO PUSH2 0x8FC MUL SWAP2 PUSH1 0x0 DUP2 DUP2 DUP2 DUP6 DUP9 DUP9 CALL SWAP4 POP POP POP POP ISZERO DUP1 ISZERO PUSH2 0x119 JUMPI RETURNDATASIZE PUSH1 0x0 DUP1 RETURNDATACOPY RETURNDATASIZE PUSH1 0x0 REVERT JUMPDEST POP POP JUMP JUMPDEST PUSH1 0x1 SLOAD PUSH20 0xFFFFFFFFFFFFFFFFFFFFFFFFFFFFFFFFFFFFFFFF AND CALLER EQ PUSH2 0x141 JUMPI PUSH1 0x0 DUP1 REVERT JUMPDEST PUSH1 0x3 SLOAD TIMESTAMP LT ISZERO PUSH2 0x184 JUMPI PUSH1 0x40 MLOAD CALLER SWAP1 PUSH1 0xA ADDRESS BALANCE PUSH1 0x9 MUL DIV DUP1 ISZERO PUSH2 0x8FC MUL SWAP2 PUSH1 0x0 DUP2 DUP2 DUP2 DUP6 DUP9 DUP9 CALL SWAP4 POP POP POP POP ISZERO DUP1 ISZERO PUSH2 0x17E JUMPI RETURNDATASIZE PUSH1 0x0 DUP1 RETURNDATACOPY RETURNDATASIZE PUSH1 0x0 REVERT JUMPDEST POP PUSH2 0x1B3 JUMP JUMPDEST PUSH1 0x40 MLOAD CALLER SWAP1 ADDRESS BALANCE DUP1 ISZERO PUSH2 0x8FC MUL SWAP2 PUSH1 0x0 DUP2 DUP2 DUP2 DUP6 DUP9 DUP9 CALL SWAP4 POP POP POP POP ISZERO DUP1 ISZERO PUSH2 0x1B1 JUMPI RETURNDATASIZE PUSH1 0x0 DUP1 RETURNDATACOPY RETURNDATASIZE PUSH1 0x0 REVERT JUMPDEST POP JUMPDEST JUMP JUMPDEST ADDRESS BALANCE ISZERO SWAP1 JUMP STOP LOG1 PUSH6 0x627A7A723058 KECCAK256 0xde 0xf5 DELEGATECALL SHL DUP4 EXTCODESIZE 0x2a PUSH8 0x182A3058854CF32D 0xf6 0xf 0x28 JUMPDEST 0xc9 BLOCKHASH 0xaa 0x4f 0xb7 0xe2 DUP7 0xbd 0xa6 PUSH9 0x223F00290000000000 ",
  "sha1": "81587253e0c9db7c31eebbd2790edf7d090c56e3",
  "source": "pragma solidity ^0.4.21;\n\ncontract RetirementFundChallenge {\n    uint256 startBalance;\n    address owner = msg.sender;\n    address beneficiary;\n    uint256 expiration = now + 10 years;\n\n    function RetirementFundChallenge(address player) public payable {\n        require(msg.value == 1 ether);\n\n        beneficiary = player;\n        startBalance = msg.value;\n    }\n\n    function isComplete() public view returns (bool) {\n        return address(this).balance == 0;\n    }\n\n    function withdraw() public {\n        require(msg.sender == owner);\n\n        if (now < expiration) {\n            // early withdrawal incurs a 10% penalty\n            msg.sender.transfer((address(this).balance * 9) / 10);\n        } else {\n            msg.sender.transfer(address(this).balance);\n        }\n    }\n\n    function collectPenalty() public {\n        require(msg.sender == beneficiary);\n\n        uint256 withdrawn = startBalance - address(this).balance;\n\n        // an early withdrawal occurred\n        require(withdrawn > 0);\n\n        // penalty is what's left\n        msg.sender.transfer(address(this).balance);\n    }\n}\n",
  "sourcePath": "contracts/Retirement-fund.sol",
  "type": "contract"
}