{
  "abi": [
    {
      "constant": true,
      "inputs": [
        {
          "name": "",
          "type": "address"
        }
      ],
      "name": "balanceOf",
      "outputs": [
        {
          "name": "",
          "type": "uint256"
        }
      ],
      "payable": false,
      "stateMutability": "view",
      "type": "function"
    },
    {
      "constant": true,
      "inputs": [],
      "name": "isComplete",
      "outputs": [
        {
          "name": "",
          "type": "bool"
        }
      ],
      "payable": false,
      "stateMutability": "view",
      "type": "function"
    },
    {
      "constant": false,
      "inputs": [
        {
          "name": "numTokens",
          "type": "uint256"
        }
      ],
      "name": "buy",
      "outputs": [],
      "payable": true,
      "stateMutability": "payable",
      "type": "function"
    },
    {
      "constant": false,
      "inputs": [
        {
          "name": "numTokens",
          "type": "uint256"
        }
      ],
      "name": "sell",
      "outputs": [],
      "payable": false,
      "stateMutability": "nonpayable",
      "type": "function"
    },
    {
      "inputs": [
        {
          "name": "_player",
          "type": "address"
        }
      ],
      "payable": true,
      "stateMutability": "payable",
      "type": "constructor"
    }
  ],
  "bytecode": "60806040526040516020806102128339810160405251670de0b6b3a7640000341461002957600080fd5b506101d9806100396000396000f3006080604052600436106100615763ffffffff7c010000000000000000000000000000000000000000000000000000000060003504166370a082318114610066578063b2fa1c9e146100a6578063d96a094a146100cf578063e4849b32146100dc575b600080fd5b34801561007257600080fd5b5061009473ffffffffffffffffffffffffffffffffffffffff600435166100f4565b60408051918252519081900360200190f35b3480156100b257600080fd5b506100bb610106565b604080519115158252519081900360200190f35b6100da600435610115565b005b3480156100e857600080fd5b506100da600435610143565b60006020819052908152604090205481565b670de0b6b3a764000030311090565b34670de0b6b3a764000082021461012b57600080fd5b33600090815260208190526040902080549091019055565b3360009081526020819052604090205481111561015f57600080fd5b336000818152602081905260408082208054859003905551670de0b6b3a7640000840280156108fc0292909190818181858888f193505050501580156101a9573d6000803e3d6000fd5b50505600a165627a7a72305820c1940ba11fb0e0ae7d8253f0d19cef91368be45e4336d9ad61db46b72ef652910029",
  "bytecodeSha1": "5529e670ccf78829c38a0b2003eeb114a40f4dd3",
  "compiler": {
    "evm_version": "byzantium",
    "optimizer": {
      "enabled": true,
      "runs": 200
    },
    "version": "0.4.26+commit.4563c3fc"
  },
  "contractName": "TokenSaleChallenge",
  "language": "Solidity",
  "natspec": {
    "methods": {}
  },
  "opcodes": "PUSH1 0x80 PUSH1 0x40 MSTORE PUSH1 0x4 CALLDATASIZE LT PUSH2 0x61 JUMPI PUSH4 0xFFFFFFFF PUSH29 0x100000000000000000000000000000000000000000000000000000000 PUSH1 0x0 CALLDATALOAD DIV AND PUSH4 0x70A08231 DUP2 EQ PUSH2 0x66 JUMPI DUP1 PUSH4 0xB2FA1C9E EQ PUSH2 0xA6 JUMPI DUP1 PUSH4 0xD96A094A EQ PUSH2 0xCF JUMPI DUP1 PUSH4 0xE4849B32 EQ PUSH2 0xDC JUMPI JUMPDEST PUSH1 0x0 DUP1 REVERT JUMPDEST CALLVALUE DUP1 ISZERO PUSH2 0x72 JUMPI PUSH1 0x0 DUP1 REVERT JUMPDEST POP PUSH2 0x94 PUSH20 0xFFFFFFFFFFFFFFFFFFFFFFFFFFFFFFFFFFFFFFFF PUSH1 0x4 CALLDATALOAD AND PUSH2 0xF4 JUMP JUMPDEST PUSH1 0x40 DUP1 MLOAD SWAP2 DUP3 MSTORE MLOAD SWAP1 DUP2 SWAP1 SUB PUSH1 0x20 ADD SWAP1 RETURN JUMPDEST CALLVALUE DUP1 ISZERO PUSH2 0xB2 JUMPI PUSH1 0x0 DUP1 REVERT JUMPDEST POP PUSH2 0xBB PUSH2 0x106 JUMP JUMPDEST PUSH1 0x40 DUP1 MLOAD SWAP2 ISZERO ISZERO DUP3 MSTORE MLOAD SWAP1 DUP2 SWAP1 SUB PUSH1 0x20 ADD SWAP1 RETURN JUMPDEST PUSH2 0xDA PUSH1 0x4 CALLDATALOAD PUSH2 0x115 JUMP JUMPDEST STOP JUMPDEST CALLVALUE DUP1 ISZERO PUSH2 0xE8 JUMPI PUSH1 0x0 DUP1 REVERT JUMPDEST POP PUSH2 0xDA PUSH1 0x4 CALLDATALOAD PUSH2 0x143 JUMP JUMPDEST PUSH1 0x0 PUSH1 0x20 DUP2 SWAP1 MSTORE SWAP1 DUP2 MSTORE PUSH1 0x40 SWAP1 KECCAK256 SLOAD DUP2 JUMP JUMPDEST PUSH8 0xDE0B6B3A7640000 ADDRESS BALANCE LT SWAP1 JUMP JUMPDEST CALLVALUE PUSH8 0xDE0B6B3A7640000 DUP3 MUL EQ PUSH2 0x12B JUMPI PUSH1 0x0 DUP1 REVERT JUMPDEST CALLER PUSH1 0x0 SWAP1 DUP2 MSTORE PUSH1 0x20 DUP2 SWAP1 MSTORE PUSH1 0x40 SWAP1 KECCAK256 DUP1 SLOAD SWAP1 SWAP2 ADD SWAP1 SSTORE JUMP JUMPDEST CALLER PUSH1 0x0 SWAP1 DUP2 MSTORE PUSH1 0x20 DUP2 SWAP1 MSTORE PUSH1 0x40 SWAP1 KECCAK256 SLOAD DUP2 GT ISZERO PUSH2 0x15F JUMPI PUSH1 0x0 DUP1 REVERT JUMPDEST CALLER PUSH1 0x0 DUP2 DUP2 MSTORE PUSH1 0x20 DUP2 SWAP1 MSTORE PUSH1 0x40 DUP1 DUP3 KECCAK256 DUP1 SLOAD DUP6 SWAP1 SUB SWAP1 SSTORE MLOAD PUSH8 0xDE0B6B3A7640000 DUP5 MUL DUP1 ISZERO PUSH2 0x8FC MUL SWAP3 SWAP1 SWAP2 SWAP1 DUP2 DUP2 DUP2 DUP6 DUP9 DUP9 CALL SWAP4 POP POP POP POP ISZERO DUP1 ISZERO PUSH2 0x1A9 JUMPI RETURNDATASIZE PUSH1 0x0 DUP1 RETURNDATACOPY RETURNDATASIZE PUSH1 0x0 REVERT JUMPDEST POP POP JUMP STOP LOG1 PUSH6 0x627A7A723058 KECCAK256 0xc1 SWAP5 SIGNEXTEND LOG1 0x1f 0xb0 0xe0 0xae PUSH30 0x8253F0D19CEF91368BE45E4336D9AD61DB46B72EF6529100290000000000 ",
  "sha1": "a61b17db872705089a03aae638a23c7631092516",
  "source": "pragma solidity ^0.4.21;\n\ncontract TokenSaleChallenge {\n    mapping(address => uint256) public balanceOf;\n    uint256 constant PRICE_PER_TOKEN = 1 ether;\n\n    function TokenSaleChallenge(address _player) public payable {\n        require(msg.value == 1 ether);\n    }\n\n    function isComplete() public view returns (bool) {\n        return address(this).balance < 1 ether;\n    }\n\n    function buy(uint256 numTokens) public payable {\n        require(msg.value == numTokens * PRICE_PER_TOKEN);\n\n        balanceOf[msg.sender] += numTokens;\n    }\n\n    function sell(uint256 numTokens) public {\n        require(balanceOf[msg.sender] >= numTokens);\n\n        balanceOf[msg.sender] -= numTokens;\n        msg.sender.transfer(numTokens * PRICE_PER_TOKEN);\n    }\n}\n",
  "sourcePath": "contracts/Token-sale.sol",
  "type": "contract"
}