{
  "abi": [
    {
      "constant": false,
      "inputs": [
        {
          "name": "amount",
          "type": "uint256"
        }
      ],
      "name": "withdraw",
      "outputs": [],
      "payable": false,
      "stateMutability": "nonpayable",
      "type": "function"
    },
    {
      "constant": true,
      "inputs": [
        {
          "name": "",
          "type": "address"
        }
      ],
      "name": "balanceOf",
      "outputs": [
        {
          "name": "",
          "type": "uint256"
        }
      ],
      "payable": false,
      "stateMutability": "view",
      "type": "function"
    },
    {
      "constant": true,
      "inputs": [],
      "name": "isComplete",
      "outputs": [
        {
          "name": "",
          "type": "bool"
        }
      ],
      "payable": false,
      "stateMutability": "view",
      "type": "function"
    },
    {
      "constant": false,
      "inputs": [
        {
          "name": "from",
          "type": "address"
        },
        {
          "name": "value",
          "type": "uint256"
        },
        {
          "name": "",
          "type": "bytes"
        }
      ],
      "name": "tokenFallback",
      "outputs": [],
      "payable": false,
      "stateMutability": "nonpayable",
      "type": "function"
    },
    {
      "constant": true,
      "inputs": [],
      "name": "token",
      "outputs": [
        {
          "name": "",
          "type": "address"
        }
      ],
      "payable": false,
      "stateMutability": "view",
      "type": "function"
    },
    {
      "inputs": [
        {
          "name": "player",
          "type": "address"
        }
      ],
      "payable": false,
      "stateMutability": "nonpayable",
      "type": "constructor"
    }
  ],
  "bytecode": "608060405234801561001057600080fd5b50604051602080610dd0833981016040525161002a61008c565b604051809103906000f080158015610046573d6000803e3d6000fd5b5060008054600160a060020a031916600160a060020a03928316178155338152600160205260408082206969e10de76676d080000090819055939092168152205561009c565b6040516108c08061051083390190565b610465806100ab6000396000f30060806040526004361061006c5763ffffffff7c01000000000000000000000000000000000000000000000000000000006000350416632e1a7d4d811461007157806370a082311461008b578063b2fa1c9e146100be578063c0ee0b8a146100e7578063fc0c546a14610150575b600080fd5b34801561007d57600080fd5b50610089600435610181565b005b34801561009757600080fd5b506100ac600160a060020a036004351661031f565b60408051918252519081900360200190f35b3480156100ca57600080fd5b506100d3610331565b604080519115158252519081900360200190f35b3480156100f357600080fd5b50604080516020600460443581810135601f8101849004840285018401909552848452610089948235600160a060020a03169460248035953695946064949201919081908401838280828437509497506103c99650505050505050565b34801561015c57600080fd5b5061016561042a565b60408051600160a060020a039092168252519081900360200190f35b336000908152600160205260409020548111156101ff57604080517f08c379a000000000000000000000000000000000000000000000000000000000815260206004820152601760248201527f696e73756666696369656e742062616c6c616e63652121000000000000000000604482015290519081900360640190fd5b60008054604080517fa9059cbb000000000000000000000000000000000000000000000000000000008152336004820152602481018590529051600160a060020a039092169263a9059cbb926044808401936020939083900390910190829087803b15801561026d57600080fd5b505af1158015610281573d6000803e3d6000fd5b505050506040513d602081101561029757600080fd5b5051151561030657604080517f08c379a000000000000000000000000000000000000000000000000000000000815260206004820152600f60248201527f7472616e73666572206661696c65640000000000000000000000000000000000604482015290519081900360640190fd5b3360009081526001602052604090208054919091039055565b60016020526000908152604090205481565b60008054604080517f70a082310000000000000000000000000000000000000000000000000000000081523060048201529051600160a060020a03909216916370a082319160248082019260209290919082900301818787803b15801561039757600080fd5b505af11580156103ab573d6000803e3d6000fd5b505050506040513d60208110156103c157600080fd5b505115905090565b600054600160a060020a031633146103e057600080fd5b600160a060020a038316600090815260016020526040902054828101101561040757600080fd5b50600160a060020a03909116600090815260016020526040902080549091019055565b600054600160a060020a0316815600a165627a7a723058208d7268554504f5a3169d03efe877468455e5037c2869ce9edccb40f40940484d002960c0604052601360808190527f53696d706c652045524332323320546f6b656e0000000000000000000000000060a090815261003e91600191906100ff565b506040805180820190915260038082527f53455400000000000000000000000000000000000000000000000000000000006020909201918252610083916002916100ff565b5060038054601260ff19909116179081905560ff16600a0a620f4240026004553480156100af57600080fd5b5060045433600081815260208181526040808320859055805194855251929391927fddf252ad1be2c89b69c2b068fc378daa952ba7f163c4a11628f55a4df523b3ef9281900390910190a361019a565b828054600181600116156101000203166002900490600052602060002090601f016020900481019282601f1061014057805160ff191683800117855561016d565b8280016001018555821561016d579182015b8281111561016d578251825591602001919060010190610152565b5061017992915061017d565b5090565b61019791905b808211156101795760008155600101610183565b90565b610717806101a96000396000f3006080604052600436106100a35763ffffffff7c010000000000000000000000000000000000000000000000000000000060003504166306fdde0381146100a8578063095ea7b31461013257806318160ddd1461016a57806323b872dd14610191578063313ce567146101bb57806370a08231146101e657806395d89b4114610207578063a9059cbb1461021c578063be45fd6214610240578063dd62ed3e146102a9575b600080fd5b3480156100b457600080fd5b506100bd6102d0565b6040805160208082528351818301528351919283929083019185019080838360005b838110156100f75781810151838201526020016100df565b50505050905090810190601f1680156101245780820380516001836020036101000a031916815260200191505b509250505060405180910390f35b34801561013e57600080fd5b50610156600160a060020a036004351660243561035d565b604080519115158252519081900360200190f35b34801561017657600080fd5b5061017f6103c3565b60408051918252519081900360200190f35b34801561019d57600080fd5b50610156600160a060020a03600435811690602435166044356103c9565b3480156101c757600080fd5b506101d06104a6565b6040805160ff9092168252519081900360200190f35b3480156101f257600080fd5b5061017f600160a060020a03600435166104af565b34801561021357600080fd5b506100bd6104c1565b34801561022857600080fd5b50610156600160a060020a0360043516602435610519565b34801561024c57600080fd5b50604080516020600460443581810135601f8101849004840285018401909552848452610156948235600160a060020a03169460248035953695946064949201919081908401838280828437509497506105309650505050505050565b3480156102b557600080fd5b5061017f600160a060020a03600435811690602435166106c6565b60018054604080516020600284861615610100026000190190941693909304601f810184900484028201840190925281815292918301828280156103555780601f1061032a57610100808354040283529160200191610355565b820191906000526020600020905b81548152906001019060200180831161033857829003601f168201915b505050505081565b336000818152600560209081526040808320600160a060020a038716808552908352818420869055815186815291519394909390927f8c5be1e5ebec7d5bd14f71427d1e84f3dd0314c0f7b2291e5b200ac8c7c3b925928290030190a350600192915050565b60045481565b600160a060020a0383166000908152602081905260408120548211156103ee57600080fd5b600160a060020a038416600090815260056020908152604080832033845290915290205482111561041e57600080fd5b600160a060020a038085166000818152602081815260408083208054889003905593871680835284832080548801905583835260058252848320338452825291849020805487900390558351868152935191937fddf252ad1be2c89b69c2b068fc378daa952ba7f163c4a11628f55a4df523b3ef929081900390910190a35060019392505050565b60035460ff1681565b60006020819052908152604090205481565b6002805460408051602060018416156101000260001901909316849004601f810184900484028201840190925281815292918301828280156103555780601f1061032a57610100808354040283529160200191610355565b60006060610528848483610530565b949350505050565b3360009081526020819052604081205483111561054c57600080fd5b3360008181526020818152604080832080548890039055600160a060020a03881680845292819020805488019055805187815290519293927fddf252ad1be2c89b69c2b068fc378daa952ba7f163c4a11628f55a4df523b3ef929181900390910190a36105b8846106e3565b156106bc5783600160a060020a031663c0ee0b8a3385856040518463ffffffff167c01000000000000000000000000000000000000000000000000000000000281526004018084600160a060020a0316600160a060020a0316815260200183815260200180602001828103825283818151815260200191508051906020019080838360005b8381101561065557818101518382015260200161063d565b50505050905090810190601f1680156106825780820380516001836020036101000a031916815260200191505b50945050505050600060405180830381600087803b1580156106a357600080fd5b505af11580156106b7573d6000803e3d6000fd5b505050505b5060019392505050565b600560209081526000928352604080842090915290825290205481565b6000903b11905600a165627a7a72305820cd02ed05264177e1bb1a2da3c90e92756295b4b406d0c1b8580280e5ed9ddf860029",
  "bytecodeSha1": "a09378f0143a45bf6a315198dbd743f787fcfd67",
  "compiler": {
    "evm_version": "byzantium",
    "optimizer": {
      "enabled": true,
      "runs": 200
    },
    "version": "0.4.26+commit.4563c3fc"
  },
  "contractName": "TokenBankChallenge",
  "language": "Solidity",
  "natspec": {
    "methods": {}
  },
  "opcodes": "PUSH1 0x80 PUSH1 0x40 MSTORE PUSH1 0x4 CALLDATASIZE LT PUSH2 0x6C JUMPI PUSH4 0xFFFFFFFF PUSH29 0x100000000000000000000000000000000000000000000000000000000 PUSH1 0x0 CALLDATALOAD DIV AND PUSH4 0x2E1A7D4D DUP2 EQ PUSH2 0x71 JUMPI DUP1 PUSH4 0x70A08231 EQ PUSH2 0x8B JUMPI DUP1 PUSH4 0xB2FA1C9E EQ PUSH2 0xBE JUMPI DUP1 PUSH4 0xC0EE0B8A EQ PUSH2 0xE7 JUMPI DUP1 PUSH4 0xFC0C546A EQ PUSH2 0x150 JUMPI JUMPDEST PUSH1 0x0 DUP1 REVERT JUMPDEST CALLVALUE DUP1 ISZERO PUSH2 0x7D JUMPI PUSH1 0x0 DUP1 REVERT JUMPDEST POP PUSH2 0x89 PUSH1 0x4 CALLDATALOAD PUSH2 0x181 JUMP JUMPDEST STOP JUMPDEST CALLVALUE DUP1 ISZERO PUSH2 0x97 JUMPI PUSH1 0x0 DUP1 REVERT JUMPDEST POP PUSH2 0xAC PUSH1 0x1 PUSH1 0xA0 PUSH1 0x2 EXP SUB PUSH1 0x4 CALLDATALOAD AND PUSH2 0x31F JUMP JUMPDEST PUSH1 0x40 DUP1 MLOAD SWAP2 DUP3 MSTORE MLOAD SWAP1 DUP2 SWAP1 SUB PUSH1 0x20 ADD SWAP1 RETURN JUMPDEST CALLVALUE DUP1 ISZERO PUSH2 0xCA JUMPI PUSH1 0x0 DUP1 REVERT JUMPDEST POP PUSH2 0xD3 PUSH2 0x331 JUMP JUMPDEST PUSH1 0x40 DUP1 MLOAD SWAP2 ISZERO ISZERO DUP3 MSTORE MLOAD SWAP1 DUP2 SWAP1 SUB PUSH1 0x20 ADD SWAP1 RETURN JUMPDEST CALLVALUE DUP1 ISZERO PUSH2 0xF3 JUMPI PUSH1 0x0 DUP1 REVERT JUMPDEST POP PUSH1 0x40 DUP1 MLOAD PUSH1 0x20 PUSH1 0x4 PUSH1 0x44 CALLDATALOAD DUP2 DUP2 ADD CALLDATALOAD PUSH1 0x1F DUP2 ADD DUP5 SWAP1 DIV DUP5 MUL DUP6 ADD DUP5 ADD SWAP1 SWAP6 MSTORE DUP5 DUP5 MSTORE PUSH2 0x89 SWAP5 DUP3 CALLDATALOAD PUSH1 0x1 PUSH1 0xA0 PUSH1 0x2 EXP SUB AND SWAP5 PUSH1 0x24 DUP1 CALLDATALOAD SWAP6 CALLDATASIZE SWAP6 SWAP5 PUSH1 0x64 SWAP5 SWAP3 ADD SWAP2 SWAP1 DUP2 SWAP1 DUP5 ADD DUP4 DUP3 DUP1 DUP3 DUP5 CALLDATACOPY POP SWAP5 SWAP8 POP PUSH2 0x3C9 SWAP7 POP POP POP POP POP POP POP JUMP JUMPDEST CALLVALUE DUP1 ISZERO PUSH2 0x15C JUMPI PUSH1 0x0 DUP1 REVERT JUMPDEST POP PUSH2 0x165 PUSH2 0x42A JUMP JUMPDEST PUSH1 0x40 DUP1 MLOAD PUSH1 0x1 PUSH1 0xA0 PUSH1 0x2 EXP SUB SWAP1 SWAP3 AND DUP3 MSTORE MLOAD SWAP1 DUP2 SWAP1 SUB PUSH1 0x20 ADD SWAP1 RETURN JUMPDEST CALLER PUSH1 0x0 SWAP1 DUP2 MSTORE PUSH1 0x1 PUSH1 0x20 MSTORE PUSH1 0x40 SWAP1 KECCAK256 SLOAD DUP2 GT ISZERO PUSH2 0x1FF JUMPI PUSH1 0x40 DUP1 MLOAD PUSH32 0x8C379A000000000000000000000000000000000000000000000000000000000 DUP2 MSTORE PUSH1 0x20 PUSH1 0x4 DUP3 ADD MSTORE PUSH1 0x17 PUSH1 0x24 DUP3 ADD MSTORE PUSH32 0x696E73756666696369656E742062616C6C616E63652121000000000000000000 PUSH1 0x44 DUP3 ADD MSTORE SWAP1 MLOAD SWAP1 DUP2 SWAP1 SUB PUSH1 0x64 ADD SWAP1 REVERT JUMPDEST PUSH1 0x0 DUP1 SLOAD PUSH1 0x40 DUP1 MLOAD PUSH32 0xA9059CBB00000000000000000000000000000000000000000000000000000000 DUP2 MSTORE CALLER PUSH1 0x4 DUP3 ADD MSTORE PUSH1 0x24 DUP2 ADD DUP6 SWAP1 MSTORE SWAP1 MLOAD PUSH1 0x1 PUSH1 0xA0 PUSH1 0x2 EXP SUB SWAP1 SWAP3 AND SWAP3 PUSH4 0xA9059CBB SWAP3 PUSH1 0x44 DUP1 DUP5 ADD SWAP4 PUSH1 0x20 SWAP4 SWAP1 DUP4 SWAP1 SUB SWAP1 SWAP2 ADD SWAP1 DUP3 SWAP1 DUP8 DUP1 EXTCODESIZE ISZERO DUP1 ISZERO PUSH2 0x26D JUMPI PUSH1 0x0 DUP1 REVERT JUMPDEST POP GAS CALL ISZERO DUP1 ISZERO PUSH2 0x281 JUMPI RETURNDATASIZE PUSH1 0x0 DUP1 RETURNDATACOPY RETURNDATASIZE PUSH1 0x0 REVERT JUMPDEST POP POP POP POP PUSH1 0x40 MLOAD RETURNDATASIZE PUSH1 0x20 DUP2 LT ISZERO PUSH2 0x297 JUMPI PUSH1 0x0 DUP1 REVERT JUMPDEST POP MLOAD ISZERO ISZERO PUSH2 0x306 JUMPI PUSH1 0x40 DUP1 MLOAD PUSH32 0x8C379A000000000000000000000000000000000000000000000000000000000 DUP2 MSTORE PUSH1 0x20 PUSH1 0x4 DUP3 ADD MSTORE PUSH1 0xF PUSH1 0x24 DUP3 ADD MSTORE PUSH32 0x7472616E73666572206661696C65640000000000000000000000000000000000 PUSH1 0x44 DUP3 ADD MSTORE SWAP1 MLOAD SWAP1 DUP2 SWAP1 SUB PUSH1 0x64 ADD SWAP1 REVERT JUMPDEST CALLER PUSH1 0x0 SWAP1 DUP2 MSTORE PUSH1 0x1 PUSH1 0x20 MSTORE PUSH1 0x40 SWAP1 KECCAK256 DUP1 SLOAD SWAP2 SWAP1 SWAP2 SUB SWAP1 SSTORE JUMP JUMPDEST PUSH1 0x1 PUSH1 0x20 MSTORE PUSH1 0x0 SWAP1 DUP2 MSTORE PUSH1 0x40 SWAP1 KECCAK256 SLOAD DUP2 JUMP JUMPDEST PUSH1 0x0 DUP1 SLOAD PUSH1 0x40 DUP1 MLOAD PUSH32 0x70A0823100000000000000000000000000000000000000000000000000000000 DUP2 MSTORE ADDRESS PUSH1 0x4 DUP3 ADD MSTORE SWAP1 MLOAD PUSH1 0x1 PUSH1 0xA0 PUSH1 0x2 EXP SUB SWAP1 SWAP3 AND SWAP2 PUSH4 0x70A08231 SWAP2 PUSH1 0x24 DUP1 DUP3 ADD SWAP3 PUSH1 0x20 SWAP3 SWAP1 SWAP2 SWAP1 DUP3 SWAP1 SUB ADD DUP2 DUP8 DUP8 DUP1 EXTCODESIZE ISZERO DUP1 ISZERO PUSH2 0x397 JUMPI PUSH1 0x0 DUP1 REVERT JUMPDEST POP GAS CALL ISZERO DUP1 ISZERO PUSH2 0x3AB JUMPI RETURNDATASIZE PUSH1 0x0 DUP1 RETURNDATACOPY RETURNDATASIZE PUSH1 0x0 REVERT JUMPDEST POP POP POP POP PUSH1 0x40 MLOAD RETURNDATASIZE PUSH1 0x20 DUP2 LT ISZERO PUSH2 0x3C1 JUMPI PUSH1 0x0 DUP1 REVERT JUMPDEST POP MLOAD ISZERO SWAP1 POP SWAP1 JUMP JUMPDEST PUSH1 0x0 SLOAD PUSH1 0x1 PUSH1 0xA0 PUSH1 0x2 EXP SUB AND CALLER EQ PUSH2 0x3E0 JUMPI PUSH1 0x0 DUP1 REVERT JUMPDEST PUSH1 0x1 PUSH1 0xA0 PUSH1 0x2 EXP SUB DUP4 AND PUSH1 0x0 SWAP1 DUP2 MSTORE PUSH1 0x1 PUSH1 0x20 MSTORE PUSH1 0x40 SWAP1 KECCAK256 SLOAD DUP3 DUP2 ADD LT ISZERO PUSH2 0x407 JUMPI PUSH1 0x0 DUP1 REVERT JUMPDEST POP PUSH1 0x1 PUSH1 0xA0 PUSH1 0x2 EXP SUB SWAP1 SWAP2 AND PUSH1 0x0 SWAP1 DUP2 MSTORE PUSH1 0x1 PUSH1 0x20 MSTORE PUSH1 0x40 SWAP1 KECCAK256 DUP1 SLOAD SWAP1 SWAP2 ADD SWAP1 SSTORE JUMP JUMPDEST PUSH1 0x0 SLOAD PUSH1 0x1 PUSH1 0xA0 PUSH1 0x2 EXP SUB AND DUP2 JUMP STOP LOG1 PUSH6 0x627A7A723058 KECCAK256 DUP14 PUSH19 0x68554504F5A3169D03EFE877468455E5037C28 PUSH10 0xCE9EDCCB40F40940484D STOP 0x29 ",
  "sha1": "544e8be30f5d71cf55fde01792af370a73b13a5c",
  "source": "pragma solidity ^0.4.21;\n\ninterface ITokenReceiver {\n    function tokenFallback(\n        address from,\n        uint256 value,\n        bytes data\n    ) external;\n}\n\ncontract SimpleERC223Token {\n    // Track how many tokens are owned by each address.\n    mapping(address => uint256) public balanceOf;\n\n    string public name = \"Simple ERC223 Token\";\n    string public symbol = \"SET\";\n    uint8 public decimals = 18;\n\n    uint256 public totalSupply = 1000000 * (uint256(10)**decimals);\n\n    event Transfer(address indexed from, address indexed to, uint256 value);\n\n    function SimpleERC223Token() public {\n        balanceOf[msg.sender] = totalSupply;\n        emit Transfer(address(0), msg.sender, totalSupply);\n    }\n\n    function isContract(address _addr) private view returns (bool is_contract) {\n        uint256 length;\n        assembly {\n            //retrieve the size of the code on target address, this needs assembly\n            length := extcodesize(_addr)\n        }\n        return length > 0;\n    }\n\n    function transfer(address to, uint256 value) public returns (bool success) {\n        bytes memory empty;\n        return transfer(to, value, empty);\n    }\n\n    function transfer(\n        address to,\n        uint256 value,\n        bytes data\n    ) public returns (bool) {\n        require(balanceOf[msg.sender] >= value);\n\n        balanceOf[msg.sender] -= value;\n        balanceOf[to] += value;\n        emit Transfer(msg.sender, to, value);\n\n        if (isContract(to)) {\n            ITokenReceiver(to).tokenFallback(msg.sender, value, data);\n        }\n        return true;\n    }\n\n    event Approval(\n        address indexed owner,\n        address indexed spender,\n        uint256 value\n    );\n\n    mapping(address => mapping(address => uint256)) public allowance;\n\n    function approve(address spender, uint256 value)\n        public\n        returns (bool success)\n    {\n        allowance[msg.sender][spender] = value;\n        emit Approval(msg.sender, spender, value);\n        return true;\n    }\n\n    function transferFrom(\n        address from,\n        address to,\n        uint256 value\n    ) public returns (bool success) {\n        require(value <= balanceOf[from]);\n        require(value <= allowance[from][msg.sender]);\n\n        balanceOf[from] -= value;\n        balanceOf[to] += value;\n        allowance[from][msg.sender] -= value;\n        emit Transfer(from, to, value);\n        return true;\n    }\n}\n\ncontract TokenBankChallenge {\n    SimpleERC223Token public token;\n    mapping(address => uint256) public balanceOf;\n\n    function TokenBankChallenge(address player) public {\n        token = new SimpleERC223Token();\n\n        // Divide up the 1,000,000 tokens, which are all initially assigned to\n        // the token contract's creator (this contract).\n        balanceOf[msg.sender] = 500000 * 10**18; // half for me\n        balanceOf[player] = 500000 * 10**18; // half for you\n    }\n\n    function isComplete() public view returns (bool) {\n        return token.balanceOf(this) == 0;\n    }\n\n    function tokenFallback(\n        address from,\n        uint256 value,\n        bytes\n    ) public {\n        require(msg.sender == address(token));\n        require(balanceOf[from] + value >= balanceOf[from]);\n\n        balanceOf[from] += value;\n    }\n\n    function withdraw(uint256 amount) public {\n        require(balanceOf[msg.sender] >= amount, \"insufficient ballance!!\");\n\n        require(token.transfer(msg.sender, amount), \"transfer failed\");\n        balanceOf[msg.sender] -= amount;\n    }\n}\n",
  "sourcePath": "contracts/Token-bank.sol",
  "type": "contract"
}